{
  "transactions": [
    {
      "hash": "0x7662eede0a84e47e6e5093247a46bf7fd12012da3254d1b07baf206b73f8be5d",
      "transactionType": "CALL",
      "contractName": null,
      "contractAddress": "0x4feb588d18857673daf0a4b988994386c50c7579",
      "function": "withdraw(address,address,uint256)",
      "arguments": [
        "0x2a1628bfE8A3663a8FC555Afd35ab90B5901D434",
        "0x92c5D7bb3613b912eEAAB2f7e2F13F902334467e",
        "1000000000000"
      ],
      "transaction": {
        "from": "0xfae469337b520548ca8b294379ef774b6e1b25ca",
        "to": "0x4feb588d18857673daf0a4b988994386c50c7579",
        "gas": "0x354f9",
        "value": "0x0",
        "input": "0xd9caed120000000000000000000000002a1628bfe8a3663a8fc555afd35ab90b5901d43400000000000000000000000092c5d7bb3613b912eeaab2f7e2f13f902334467e000000000000000000000000000000000000000000000000000000e8d4a51000",
        "nonce": "0xc9",
        "chainId": "0x14a34"
      },
      "additionalContracts": [],
      "isFixedGasLimit": false
    }
  ],
  "receipts": [
    {
      "status": "0x1",
      "cumulativeGasUsed": "0x7cb6c5",
      "logs": [
        {
          "address": "0x2a1628bfe8a3663a8fc555afd35ab90b5901d434",
          "topics": [
            "0xddf252ad1be2c89b69c2b068fc378daa952ba7f163c4a11628f55a4df523b3ef",
            "0x0000000000000000000000004feb588d18857673daf0a4b988994386c50c7579",
            "0x00000000000000000000000092c5d7bb3613b912eeaab2f7e2f13f902334467e"
          ],
          "data": "0x000000000000000000000000000000000000000000000000000000e8d4a51000",
          "blockHash": "0x4bd7ba18ddc6cc23df0dfebb00fbcde76f2af350f45bcd3cc5129c1af7d9d178",
          "blockNumber": "0x1f5502d",
          "blockTimestamp": "0x68fdff3a",
          "transactionHash": "0x7662eede0a84e47e6e5093247a46bf7fd12012da3254d1b07baf206b73f8be5d",
          "transactionIndex": "0x4a",
          "logIndex": "0x87",
          "removed": false
        },
        {
          "address": "0x4feb588d18857673daf0a4b988994386c50c7579",
          "topics": [
            "0xd1c19fbcd4551a5edfb66d43d2e337c04837afda3482b42bdf569a8fccdae5fb",
            "0x0000000000000000000000002a1628bfe8a3663a8fc555afd35ab90b5901d434",
            "0x00000000000000000000000092c5d7bb3613b912eeaab2f7e2f13f902334467e"
          ],
          "data": "0x000000000000000000000000000000000000000000000000000000e8d4a51000",
          "blockHash": "0x4bd7ba18ddc6cc23df0dfebb00fbcde76f2af350f45bcd3cc5129c1af7d9d178",
          "blockNumber": "0x1f5502d",
          "blockTimestamp": "0x68fdff3a",
          "transactionHash": "0x7662eede0a84e47e6e5093247a46bf7fd12012da3254d1b07baf206b73f8be5d",
          "transactionIndex": "0x4a",
          "logIndex": "0x88",
          "removed": false
        }
      ],
      "logsBloom": "0x00000000000000000000000000000000000000020000000000000000000000080000000000000000000000000001000000000000000000000000000000001000100004000000002000000008000000800000000000000000000000001000000000000000000000000002000000000000000000040000000000000010000000000000000000000000000000000000000000000000000004000000000000000000001000000000000002080000000000000000000000000000000000000000000000000002000000000000000000000000000000000000000000000000000000000000000000000000000000080200000000000000000000000000000000000100",
      "type": "0x2",
      "transactionHash": "0x7662eede0a84e47e6e5093247a46bf7fd12012da3254d1b07baf206b73f8be5d",
      "transactionIndex": "0x4a",
      "blockHash": "0x4bd7ba18ddc6cc23df0dfebb00fbcde76f2af350f45bcd3cc5129c1af7d9d178",
      "blockNumber": "0x1f5502d",
      "gasUsed": "0x2473b",
      "effectiveGasPrice": "0xf4278",
      "from": "0xfae469337b520548ca8b294379ef774b6e1b25ca",
      "to": "0x4feb588d18857673daf0a4b988994386c50c7579",
      "contractAddress": null,
      "l1BaseFeeScalar": "0x44d",
      "l1BlobBaseFee": "0x1",
      "l1BlobBaseFeeScalar": "0xa118b",
      "l1Fee": "0x3ef",
      "l1GasPrice": "0x9",
      "l1GasUsed": "0x6da"
    }
  ],
  "libraries": [],
  "pending": [],
  "returns": {},
  "timestamp": 1761476409945,
  "chain": 84532,
  "commit": null
}