{
  "transactions": [
    {
      "hash": "0x50534254ef9ea066611641b7b66dba906db7b17c773e450ad458129a3be36029",
      "transactionType": "CALL",
      "contractName": null,
      "contractAddress": "0xd1fe633860b0f3cfd697597860e9b3014290ab09",
      "function": "withdraw(address,address,uint256)",
      "arguments": [
        "0xA1bA05c373dC3c7536cDD87419A3dBa4dfFE3f69",
        "0xaE20a3CcD95f2d1780B719B644fB8291F808c4fE",
        "1000000000000"
      ],
      "transaction": {
        "from": "0x7c5da45c3631e91f4d2dc9f53f706775787dbf1e",
        "to": "0xd1fe633860b0f3cfd697597860e9b3014290ab09",
        "value": "0x0",
        "input": "0xd9caed12000000000000000000000000a1ba05c373dc3c7536cdd87419a3dba4dffe3f69000000000000000000000000ae20a3ccd95f2d1780b719b644fb8291f808c4fe000000000000000000000000000000000000000000000000000000e8d4a51000",
        "nonce": "0x279",
        "chainId": "0x14a34"
      },
      "additionalContracts": [],
      "isFixedGasLimit": false
    },
    {
      "hash": "0x6d95693e40d55e8adfbc39911121a149739ce92ed117099ad1ed70759c0660df",
      "transactionType": "CALL",
      "contractName": null,
      "contractAddress": "0xd1fe633860b0f3cfd697597860e9b3014290ab09",
      "function": "withdraw(address,address,uint256)",
      "arguments": [
        "0xA1bA05c373dC3c7536cDD87419A3dBa4dfFE3f69",
        "0xCA18ec274da3E13112A7ab0076846854B813c9b2",
        "1000000000000"
      ],
      "transaction": {
        "from": "0x7c5da45c3631e91f4d2dc9f53f706775787dbf1e",
        "to": "0xd1fe633860b0f3cfd697597860e9b3014290ab09",
        "value": "0x0",
        "input": "0xd9caed12000000000000000000000000a1ba05c373dc3c7536cdd87419a3dba4dffe3f69000000000000000000000000ca18ec274da3e13112a7ab0076846854b813c9b2000000000000000000000000000000000000000000000000000000e8d4a51000",
        "nonce": "0x27a",
        "chainId": "0x14a34"
      },
      "additionalContracts": [],
      "isFixedGasLimit": false
    },
    {
      "hash": "0xc334e0cf07a9dab323253065cdae59767795709f8328ccc5b8fc114df0d44729",
      "transactionType": "CALL",
      "contractName": null,
      "contractAddress": "0xd1fe633860b0f3cfd697597860e9b3014290ab09",
      "function": "withdraw(address,address,uint256)",
      "arguments": [
        "0xA1bA05c373dC3c7536cDD87419A3dBa4dfFE3f69",
        "0x284eDA5366372385ed21fd5e56247D55434B3F17",
        "1000000000000"
      ],
      "transaction": {
        "from": "0x7c5da45c3631e91f4d2dc9f53f706775787dbf1e",
        "to": "0xd1fe633860b0f3cfd697597860e9b3014290ab09",
        "value": "0x0",
        "input": "0xd9caed12000000000000000000000000a1ba05c373dc3c7536cdd87419a3dba4dffe3f69000000000000000000000000284eda5366372385ed21fd5e56247d55434b3f17000000000000000000000000000000000000000000000000000000e8d4a51000",
        "nonce": "0x27b",
        "chainId": "0x14a34"
      },
      "additionalContracts": [],
      "isFixedGasLimit": false
    }
  ],
  "receipts": [
    {
      "status": "0x1",
      "cumulativeGasUsed": "0x68940d",
      "logs": [
        {
          "address": "0xa1ba05c373dc3c7536cdd87419a3dba4dffe3f69",
          "topics": [
            "0xddf252ad1be2c89b69c2b068fc378daa952ba7f163c4a11628f55a4df523b3ef",
            "0x000000000000000000000000d1fe633860b0f3cfd697597860e9b3014290ab09",
            "0x000000000000000000000000ae20a3ccd95f2d1780b719b644fb8291f808c4fe"
          ],
          "data": "0x000000000000000000000000000000000000000000000000000000e8d4a51000",
          "blockHash": "0x90cf24c7793f26e9c3378a58bd4285e807256eebe3d9852d67a0f86f9cdfd822",
          "blockNumber": "0x1f63701",
          "blockTimestamp": "0x68ffcce2",
          "transactionHash": "0x50534254ef9ea066611641b7b66dba906db7b17c773e450ad458129a3be36029",
          "transactionIndex": "0x2a",
          "logIndex": "0x7f",
          "removed": false
        },
        {
          "address": "0xd1fe633860b0f3cfd697597860e9b3014290ab09",
          "topics": [
            "0xd1c19fbcd4551a5edfb66d43d2e337c04837afda3482b42bdf569a8fccdae5fb",
            "0x000000000000000000000000a1ba05c373dc3c7536cdd87419a3dba4dffe3f69",
            "0x000000000000000000000000ae20a3ccd95f2d1780b719b644fb8291f808c4fe"
          ],
          "data": "0x000000000000000000000000000000000000000000000000000000e8d4a51000",
          "blockHash": "0x90cf24c7793f26e9c3378a58bd4285e807256eebe3d9852d67a0f86f9cdfd822",
          "blockNumber": "0x1f63701",
          "blockTimestamp": "0x68ffcce2",
          "transactionHash": "0x50534254ef9ea066611641b7b66dba906db7b17c773e450ad458129a3be36029",
          "transactionIndex": "0x2a",
          "logIndex": "0x80",
          "removed": false
        }
      ],
      "logsBloom": "0x00000000000000000000000000000000000000000000000000000000000000000000000000000000000000000000000000000000000000000000000000100000000001000000000000000008000000000000000000400000010000001000000000000000000000000000100000000200000000000000008000000010000000000000000000000000200008000000020000000000000000000000000000000000000008000000000002000000000000000000000000000000000000000000000000000002000000000000000000000000000000000000000000000000000004001000000008000000000000080000000000000000000000000000000000010000",
      "type": "0x2",
      "transactionHash": "0x50534254ef9ea066611641b7b66dba906db7b17c773e450ad458129a3be36029",
      "transactionIndex": "0x2a",
      "blockHash": "0x90cf24c7793f26e9c3378a58bd4285e807256eebe3d9852d67a0f86f9cdfd822",
      "blockNumber": "0x1f63701",
      "gasUsed": "0x24767",
      "effectiveGasPrice": "0xf4280",
      "from": "0x7c5da45c3631e91f4d2dc9f53f706775787dbf1e",
      "to": "0xd1fe633860b0f3cfd697597860e9b3014290ab09",
      "contractAddress": null,
      "l1BaseFeeScalar": "0x44d",
      "l1BlobBaseFee": "0x1",
      "l1BlobBaseFeeScalar": "0xa118b",
      "l1Fee": "0x51",
      "l1GasPrice": "0x9",
      "l1GasUsed": "0x6e7"
    },
    {
      "status": "0x1",
      "cumulativeGasUsed": "0x555d3",
      "logs": [
        {
          "address": "0xa1ba05c373dc3c7536cdd87419a3dba4dffe3f69",
          "topics": [
            "0xddf252ad1be2c89b69c2b068fc378daa952ba7f163c4a11628f55a4df523b3ef",
            "0x000000000000000000000000d1fe633860b0f3cfd697597860e9b3014290ab09",
            "0x000000000000000000000000ca18ec274da3e13112a7ab0076846854b813c9b2"
          ],
          "data": "0x000000000000000000000000000000000000000000000000000000e8d4a51000",
          "blockHash": "0xf6cd6e32647fe0f2fdc803144f999fbd62e494eb7f5fefb10ca902eb0b657e6c",
          "blockNumber": "0x1f63703",
          "blockTimestamp": "0x68ffcce6",
          "transactionHash": "0x6d95693e40d55e8adfbc39911121a149739ce92ed117099ad1ed70759c0660df",
          "transactionIndex": "0x5",
          "logIndex": "0x4",
          "removed": false
        },
        {
          "address": "0xd1fe633860b0f3cfd697597860e9b3014290ab09",
          "topics": [
            "0xd1c19fbcd4551a5edfb66d43d2e337c04837afda3482b42bdf569a8fccdae5fb",
            "0x000000000000000000000000a1ba05c373dc3c7536cdd87419a3dba4dffe3f69",
            "0x000000000000000000000000ca18ec274da3e13112a7ab0076846854b813c9b2"
          ],
          "data": "0x000000000000000000000000000000000000000000000000000000e8d4a51000",
          "blockHash": "0xf6cd6e32647fe0f2fdc803144f999fbd62e494eb7f5fefb10ca902eb0b657e6c",
          "blockNumber": "0x1f63703",
          "blockTimestamp": "0x68ffcce6",
          "transactionHash": "0x6d95693e40d55e8adfbc39911121a149739ce92ed117099ad1ed70759c0660df",
          "transactionIndex": "0x5",
          "logIndex": "0x5",
          "removed": false
        }
      ],
      "logsBloom": "0x00000000000000000000000000000000000000000000000000000000000000000000000000000000000000000000000000000000000000000000000000100000000001000000000000000008000000000000000000000000010000001000000000000000000000000000100000000200000000000000008000000010080000000000000000000000200008000000020000000000000000000000000000000000000000000000000002000000000000000000000000000000000000010000000000000002000000000000000000000000000000000000000000000000000004000000000008000000000000080000000000000000000000000000000000050000",
      "type": "0x2",
      "transactionHash": "0x6d95693e40d55e8adfbc39911121a149739ce92ed117099ad1ed70759c0660df",
      "transactionIndex": "0x5",
      "blockHash": "0xf6cd6e32647fe0f2fdc803144f999fbd62e494eb7f5fefb10ca902eb0b657e6c",
      "blockNumber": "0x1f63703",
      "gasUsed": "0x2048f",
      "effectiveGasPrice": "0xf4281",
      "from": "0x7c5da45c3631e91f4d2dc9f53f706775787dbf1e",
      "to": "0xd1fe633860b0f3cfd697597860e9b3014290ab09",
      "contractAddress": null,
      "l1BaseFeeScalar": "0x44d",
      "l1BlobBaseFee": "0x1",
      "l1BlobBaseFeeScalar": "0xa118b",
      "l1Fee": "0x51",
      "l1GasPrice": "0x9",
      "l1GasUsed": "0x6e7"
    },
    {
      "status": "0x1",
      "cumulativeGasUsed": "0xbbb16",
      "logs": [
        {
          "address": "0xa1ba05c373dc3c7536cdd87419a3dba4dffe3f69",
          "topics": [
            "0xddf252ad1be2c89b69c2b068fc378daa952ba7f163c4a11628f55a4df523b3ef",
            "0x000000000000000000000000d1fe633860b0f3cfd697597860e9b3014290ab09",
            "0x000000000000000000000000284eda5366372385ed21fd5e56247d55434b3f17"
          ],
          "data": "0x000000000000000000000000000000000000000000000000000000e8d4a51000",
          "blockHash": "0x0af87e46238f27dc824e963038a5fa7922c7d7768cca4c6fae17d1b62ccd8e28",
          "blockNumber": "0x1f63705",
          "blockTimestamp": "0x68ffccea",
          "transactionHash": "0xc334e0cf07a9dab323253065cdae59767795709f8328ccc5b8fc114df0d44729",
          "transactionIndex": "0x7",
          "logIndex": "0xa",
          "removed": false
        },
        {
          "address": "0xd1fe633860b0f3cfd697597860e9b3014290ab09",
          "topics": [
            "0xd1c19fbcd4551a5edfb66d43d2e337c04837afda3482b42bdf569a8fccdae5fb",
            "0x000000000000000000000000a1ba05c373dc3c7536cdd87419a3dba4dffe3f69",
            "0x000000000000000000000000284eda5366372385ed21fd5e56247d55434b3f17"
          ],
          "data": "0x000000000000000000000000000000000000000000000000000000e8d4a51000",
          "blockHash": "0x0af87e46238f27dc824e963038a5fa7922c7d7768cca4c6fae17d1b62ccd8e28",
          "blockNumber": "0x1f63705",
          "blockTimestamp": "0x68ffccea",
          "transactionHash": "0xc334e0cf07a9dab323253065cdae59767795709f8328ccc5b8fc114df0d44729",
          "transactionIndex": "0x7",
          "logIndex": "0xb",
          "removed": false
        }
      ],
      "logsBloom": "0x00000000000000000000000000000000000000000000000000000000000000000000000000000000000000000000000000000000000000000000000000100000000001000000000000000008000000000000000000000000010000001000000000000000000000000000100000000200000000000000008000000010000000000000000000000000200008000000020000000000000000000000000000000000000000000000080002000000000080000000000000000000000000000000000000000002000000000000000000000000000000000000000000000000000004040000000008000000000000080000000000000000000000000000000000010000",
      "type": "0x2",
      "transactionHash": "0xc334e0cf07a9dab323253065cdae59767795709f8328ccc5b8fc114df0d44729",
      "transactionIndex": "0x7",
      "blockHash": "0x0af87e46238f27dc824e963038a5fa7922c7d7768cca4c6fae17d1b62ccd8e28",
      "blockNumber": "0x1f63705",
      "gasUsed": "0x2049b",
      "effectiveGasPrice": "0xf4281",
      "from": "0x7c5da45c3631e91f4d2dc9f53f706775787dbf1e",
      "to": "0xd1fe633860b0f3cfd697597860e9b3014290ab09",
      "contractAddress": null,
      "l1BaseFeeScalar": "0x44d",
      "l1BlobBaseFee": "0x1",
      "l1BlobBaseFeeScalar": "0xa118b",
      "l1Fee": "0x51",
      "l1GasPrice": "0x9",
      "l1GasUsed": "0x6e7"
    }
  ],
  "libraries": [],
  "pending": [],
  "returns": {},
  "timestamp": 1761594600235,
  "chain": 84532,
  "commit": null
}