{
  "transactions": [
    {
      "hash": "0x564a913433ba41882d65c728014ca23706d8b05028ba74af66e61b53e7748348",
      "transactionType": "CALL",
      "contractName": null,
      "contractAddress": "0xe5e4b610e5634103550defd4f1e739946a984178",
      "function": "setFlag(bytes32,bool)",
      "arguments": [
        "0xc8ebb06d7fa42d0cb3f1b1c0682530373841ce9e1b50edce5d2b9cf0a0069af3",
        "true"
      ],
      "transaction": {
        "from": "0xfae469337b520548ca8b294379ef774b6e1b25ca",
        "to": "0xe5e4b610e5634103550defd4f1e739946a984178",
        "gas": "0xc23f",
        "value": "0x0",
        "input": "0x39b220bbc8ebb06d7fa42d0cb3f1b1c0682530373841ce9e1b50edce5d2b9cf0a0069af30000000000000000000000000000000000000000000000000000000000000001",
        "nonce": "0x34",
        "chainId": "0x14a34"
      },
      "additionalContracts": [],
      "isFixedGasLimit": false
    },
    {
      "hash": "0x8b0753c3e12ad24493b43239b9e3efd98d3ad52c4c1cdfc56c4f2479cc8c6de7",
      "transactionType": "CALL",
      "contractName": null,
      "contractAddress": "0xe5e4b610e5634103550defd4f1e739946a984178",
      "function": "setFlag(bytes32,bool)",
      "arguments": [
        "0x7e4162b8f5b014391ff15b7ccca89c2cd6b2656c814e769a1d7d3e0dd6b60cb3",
        "true"
      ],
      "transaction": {
        "from": "0xfae469337b520548ca8b294379ef774b6e1b25ca",
        "to": "0xe5e4b610e5634103550defd4f1e739946a984178",
        "gas": "0xc23f",
        "value": "0x0",
        "input": "0x39b220bb7e4162b8f5b014391ff15b7ccca89c2cd6b2656c814e769a1d7d3e0dd6b60cb30000000000000000000000000000000000000000000000000000000000000001",
        "nonce": "0x35",
        "chainId": "0x14a34"
      },
      "additionalContracts": [],
      "isFixedGasLimit": false
    },
    {
      "hash": "0xf7860ab1aab5ad187a38ee7d91ddf799c2b2d7619b18075797226d9cb747fd7a",
      "transactionType": "CALL",
      "contractName": null,
      "contractAddress": "0xe5e4b610e5634103550defd4f1e739946a984178",
      "function": "setFlag(bytes32,bool)",
      "arguments": [
        "0x711cb34a57fccb25603a4d79e3333d413b52760337a4a9dd6cfab714b0a4cb05",
        "true"
      ],
      "transaction": {
        "from": "0xfae469337b520548ca8b294379ef774b6e1b25ca",
        "to": "0xe5e4b610e5634103550defd4f1e739946a984178",
        "gas": "0xc23f",
        "value": "0x0",
        "input": "0x39b220bb711cb34a57fccb25603a4d79e3333d413b52760337a4a9dd6cfab714b0a4cb050000000000000000000000000000000000000000000000000000000000000001",
        "nonce": "0x36",
        "chainId": "0x14a34"
      },
      "additionalContracts": [],
      "isFixedGasLimit": false
    },
    {
      "hash": "0x18bdb35b24e6218a6bff00f75146e135c372228387996fb313cc69959a789ebf",
      "transactionType": "CALL",
      "contractName": null,
      "contractAddress": "0xe5e4b610e5634103550defd4f1e739946a984178",
      "function": "setFlag(bytes32,bool)",
      "arguments": [
        "0x31f9e0882bae19d9d7cb4cbd9e2256c11629f66630667ffaedf00c629bff42b8",
        "true"
      ],
      "transaction": {
        "from": "0xfae469337b520548ca8b294379ef774b6e1b25ca",
        "to": "0xe5e4b610e5634103550defd4f1e739946a984178",
        "gas": "0xc23f",
        "value": "0x0",
        "input": "0x39b220bb31f9e0882bae19d9d7cb4cbd9e2256c11629f66630667ffaedf00c629bff42b80000000000000000000000000000000000000000000000000000000000000001",
        "nonce": "0x37",
        "chainId": "0x14a34"
      },
      "additionalContracts": [],
      "isFixedGasLimit": false
    },
    {
      "hash": "0xf413da7d819f8e61a93f99b32bd1d42a3aa1bdd7d88514e70d4711c209a4a2c5",
      "transactionType": "CALL",
      "contractName": null,
      "contractAddress": "0xe5e4b610e5634103550defd4f1e739946a984178",
      "function": "setFlag(bytes32,bool)",
      "arguments": [
        "0x163670f575c7fb5fe5e1e19d9184c0573c08fbcda295a74e91c2e0b72734b5f7",
        "true"
      ],
      "transaction": {
        "from": "0xfae469337b520548ca8b294379ef774b6e1b25ca",
        "to": "0xe5e4b610e5634103550defd4f1e739946a984178",
        "gas": "0xc23f",
        "value": "0x0",
        "input": "0x39b220bb163670f575c7fb5fe5e1e19d9184c0573c08fbcda295a74e91c2e0b72734b5f70000000000000000000000000000000000000000000000000000000000000001",
        "nonce": "0x38",
        "chainId": "0x14a34"
      },
      "additionalContracts": [],
      "isFixedGasLimit": false
    },
    {
      "hash": "0xc8986fb4b399cdf8866add8d0c1be7d5f952129fcdc5f6fce293e5ffe01e3018",
      "transactionType": "CALL",
      "contractName": null,
      "contractAddress": "0xe5e4b610e5634103550defd4f1e739946a984178",
      "function": "setFlag(bytes32,bool)",
      "arguments": [
        "0xc6a67d18a30a092f9fbe00f0ad680d4aed33d4247ded19775043b4583eab2899",
        "true"
      ],
      "transaction": {
        "from": "0xfae469337b520548ca8b294379ef774b6e1b25ca",
        "to": "0xe5e4b610e5634103550defd4f1e739946a984178",
        "gas": "0xb764",
        "value": "0x0",
        "input": "0x39b220bbc6a67d18a30a092f9fbe00f0ad680d4aed33d4247ded19775043b4583eab28990000000000000000000000000000000000000000000000000000000000000001",
        "nonce": "0x39",
        "chainId": "0x14a34"
      },
      "additionalContracts": [],
      "isFixedGasLimit": false
    },
    {
      "hash": "0xebca66f5b3d3b665e16822cf934894daebd65b9ce0446b1e6ec541cdeeab6d48",
      "transactionType": "CALL",
      "contractName": null,
      "contractAddress": "0xe5e4b610e5634103550defd4f1e739946a984178",
      "function": "setFlag(bytes32,bool)",
      "arguments": [
        "0x586fce3c55c92a95befa20362bbd4d909e3155d3d7ee4e6cd6c0d5e9d91e98fe",
        "true"
      ],
      "transaction": {
        "from": "0xfae469337b520548ca8b294379ef774b6e1b25ca",
        "to": "0xe5e4b610e5634103550defd4f1e739946a984178",
        "gas": "0xc23f",
        "value": "0x0",
        "input": "0x39b220bb586fce3c55c92a95befa20362bbd4d909e3155d3d7ee4e6cd6c0d5e9d91e98fe0000000000000000000000000000000000000000000000000000000000000001",
        "nonce": "0x3a",
        "chainId": "0x14a34"
      },
      "additionalContracts": [],
      "isFixedGasLimit": false
    },
    {
      "hash": "0xcc82db812135f1d99f41e91ad5ecdccbe6c48a7c9d6c911609f52af9238a5e74",
      "transactionType": "CALL",
      "contractName": null,
      "contractAddress": "0xe80b498652303ff7eb113d70861f677df6029ea6",
      "function": "authorizeModule(address,bool)",
      "arguments": [
        "0x1Be33EAe451652E47d8308E64cAFb46063006E7D",
        "true"
      ],
      "transaction": {
        "from": "0xfae469337b520548ca8b294379ef774b6e1b25ca",
        "to": "0xe80b498652303ff7eb113d70861f677df6029ea6",
        "gas": "0xb54a",
        "value": "0x0",
        "input": "0xc82a10890000000000000000000000001be33eae451652e47d8308e64cafb46063006e7d0000000000000000000000000000000000000000000000000000000000000001",
        "nonce": "0x3b",
        "chainId": "0x14a34"
      },
      "additionalContracts": [],
      "isFixedGasLimit": false
    },
    {
      "hash": "0x974bc60a780213e9c8519363b0ba38ba7d7ecd203b172be19d14cb8f61e511d2",
      "transactionType": "CALL",
      "contractName": null,
      "contractAddress": "0xe80b498652303ff7eb113d70861f677df6029ea6",
      "function": "authorizeModule(address,bool)",
      "arguments": [
        "0x3CD3c4F3619865dd9181baFe7d431102FC8d008a",
        "true"
      ],
      "transaction": {
        "from": "0xfae469337b520548ca8b294379ef774b6e1b25ca",
        "to": "0xe80b498652303ff7eb113d70861f677df6029ea6",
        "gas": "0xb54a",
        "value": "0x0",
        "input": "0xc82a10890000000000000000000000003cd3c4f3619865dd9181bafe7d431102fc8d008a0000000000000000000000000000000000000000000000000000000000000001",
        "nonce": "0x3c",
        "chainId": "0x14a34"
      },
      "additionalContracts": [],
      "isFixedGasLimit": false
    },
    {
      "hash": "0x0a0c3fe790353709de82a3aa70784b2277a901fc9e37a73051bd2a371f3c6280",
      "transactionType": "CALL",
      "contractName": null,
      "contractAddress": "0x9b2b539938db144baae9f14512b8b25da40b178d",
      "function": "setModuleAllowance(address,bool,uint256)",
      "arguments": [
        "0x1Be33EAe451652E47d8308E64cAFb46063006E7D",
        "true",
        "0"
      ],
      "transaction": {
        "from": "0xfae469337b520548ca8b294379ef774b6e1b25ca",
        "to": "0x9b2b539938db144baae9f14512b8b25da40b178d",
        "gas": "0xed2d",
        "value": "0x0",
        "input": "0x3220309a0000000000000000000000001be33eae451652e47d8308e64cafb46063006e7d00000000000000000000000000000000000000000000000000000000000000010000000000000000000000000000000000000000000000000000000000000000",
        "nonce": "0x3d",
        "chainId": "0x14a34"
      },
      "additionalContracts": [],
      "isFixedGasLimit": false
    },
    {
      "hash": "0x132cb3b78eae8887ae91d4698abcbe0bf5c00e79d09b2c347133ed9a18adb5f6",
      "transactionType": "CALL",
      "contractName": null,
      "contractAddress": "0x9b2b539938db144baae9f14512b8b25da40b178d",
      "function": "withdraw(address,address,uint256)",
      "arguments": [
        "0x213e537C2D0aA1FEEc5C9EE55dE6a501F8270248",
        "0xA4Cc4c627Ba3ce9D072487Ad1A7df3A442156655",
        "1200000000"
      ],
      "transaction": {
        "from": "0xfae469337b520548ca8b294379ef774b6e1b25ca",
        "to": "0x9b2b539938db144baae9f14512b8b25da40b178d",
        "gas": "0x24925",
        "value": "0x0",
        "input": "0xd9caed12000000000000000000000000213e537c2d0aa1feec5c9ee55de6a501f8270248000000000000000000000000a4cc4c627ba3ce9d072487ad1a7df3a4421566550000000000000000000000000000000000000000000000000000000047868c00",
        "nonce": "0x3e",
        "chainId": "0x14a34"
      },
      "additionalContracts": [],
      "isFixedGasLimit": false
    },
    {
      "hash": "0x3bdeb1c121523cee5d5c75c76e7b7f6bcff5508a2525fefcbd70645a11a7b8c7",
      "transactionType": "CALL",
      "contractName": null,
      "contractAddress": "0x9b2b539938db144baae9f14512b8b25da40b178d",
      "function": "withdraw(address,address,uint256)",
      "arguments": [
        "0x213e537C2D0aA1FEEc5C9EE55dE6a501F8270248",
        "0xB2d7B5cb601C4b3BFe5C5996Ee3A3cAc6ED0B324",
        "2000000000"
      ],
      "transaction": {
        "from": "0xfae469337b520548ca8b294379ef774b6e1b25ca",
        "to": "0x9b2b539938db144baae9f14512b8b25da40b178d",
        "gas": "0x24925",
        "value": "0x0",
        "input": "0xd9caed12000000000000000000000000213e537c2d0aa1feec5c9ee55de6a501f8270248000000000000000000000000b2d7b5cb601c4b3bfe5c5996ee3a3cac6ed0b3240000000000000000000000000000000000000000000000000000000077359400",
        "nonce": "0x3f",
        "chainId": "0x14a34"
      },
      "additionalContracts": [],
      "isFixedGasLimit": false
    },
    {
      "hash": "0x4ead605c3614421099bcf8273925cc832cf13fc753dfa7a0bf73e3297e90a2de",
      "transactionType": "CALL",
      "contractName": null,
      "contractAddress": "0x9b2b539938db144baae9f14512b8b25da40b178d",
      "function": "withdraw(address,address,uint256)",
      "arguments": [
        "0x213e537C2D0aA1FEEc5C9EE55dE6a501F8270248",
        "0x90309441D63E793DF9B715a45e2EC874C2ec3C2e",
        "500000000"
      ],
      "transaction": {
        "from": "0xfae469337b520548ca8b294379ef774b6e1b25ca",
        "to": "0x9b2b539938db144baae9f14512b8b25da40b178d",
        "gas": "0x24925",
        "value": "0x0",
        "input": "0xd9caed12000000000000000000000000213e537c2d0aa1feec5c9ee55de6a501f827024800000000000000000000000090309441d63e793df9b715a45e2ec874c2ec3c2e000000000000000000000000000000000000000000000000000000001dcd6500",
        "nonce": "0x40",
        "chainId": "0x14a34"
      },
      "additionalContracts": [],
      "isFixedGasLimit": false
    },
    {
      "hash": "0xd8f4be5fa8a1f961262bb6f2e9eb6a2adb5b3a111bfdbea3b721fb41014babd5",
      "transactionType": "CALL",
      "contractName": null,
      "contractAddress": "0x9b2b539938db144baae9f14512b8b25da40b178d",
      "function": "withdraw(address,address,uint256)",
      "arguments": [
        "0x213e537C2D0aA1FEEc5C9EE55dE6a501F8270248",
        "0xd8FFfA68aFdE02c2fd13b305F7c53475d56a7896",
        "800000000"
      ],
      "transaction": {
        "from": "0xfae469337b520548ca8b294379ef774b6e1b25ca",
        "to": "0x9b2b539938db144baae9f14512b8b25da40b178d",
        "gas": "0x24925",
        "value": "0x0",
        "input": "0xd9caed12000000000000000000000000213e537c2d0aa1feec5c9ee55de6a501f8270248000000000000000000000000d8fffa68afde02c2fd13b305f7c53475d56a7896000000000000000000000000000000000000000000000000000000002faf0800",
        "nonce": "0x41",
        "chainId": "0x14a34"
      },
      "additionalContracts": [],
      "isFixedGasLimit": false
    },
    {
      "hash": "0xd4e2d3cbffb0f1b93ef10ddb2a9ac70085696dd18faaeb9065cdf6be904e4e52",
      "transactionType": "CALL",
      "contractName": null,
      "contractAddress": "0x213e537c2d0aa1feec5c9ee55de6a501f8270248",
      "function": "approve(address,uint256)",
      "arguments": [
        "0x1Be33EAe451652E47d8308E64cAFb46063006E7D",
        "1000000000"
      ],
      "transaction": {
        "from": "0xa4cc4c627ba3ce9d072487ad1a7df3a442156655",
        "to": "0x213e537c2d0aa1feec5c9ee55de6a501f8270248",
        "gas": "0x13f33",
        "value": "0x0",
        "input": "0x095ea7b30000000000000000000000001be33eae451652e47d8308e64cafb46063006e7d000000000000000000000000000000000000000000000000000000003b9aca00",
        "nonce": "0x0",
        "chainId": "0x14a34"
      },
      "additionalContracts": [],
      "isFixedGasLimit": false
    },
    {
      "hash": "0xd72e9320952ef8874a911f562cc80e64e6b591b48d19fa0fdae8a4087224904a",
      "transactionType": "CALL",
      "contractName": null,
      "contractAddress": "0x1be33eae451652e47d8308e64cafb46063006e7d",
      "function": "createEscrow(bytes32,address,address,uint256,uint8)",
      "arguments": [
        "0x34c12e9f18f8c2ffc43f67784f7f92aa39dfbe474244d3c68bb46fc26be43152",
        "0x82BfDBFF67eEAb47F8aF9032df7102566B7b06eE",
        "0x213e537C2D0aA1FEEc5C9EE55dE6a501F8270248",
        "1000000000",
        "1"
      ],
      "transaction": {
        "from": "0xa4cc4c627ba3ce9d072487ad1a7df3a442156655",
        "to": "0x1be33eae451652e47d8308e64cafb46063006e7d",
        "gas": "0x595ae",
        "value": "0x0",
        "input": "0x7f2e295f34c12e9f18f8c2ffc43f67784f7f92aa39dfbe474244d3c68bb46fc26be4315200000000000000000000000082bfdbff67eeab47f8af9032df7102566b7b06ee000000000000000000000000213e537c2d0aa1feec5c9ee55de6a501f8270248000000000000000000000000000000000000000000000000000000003b9aca000000000000000000000000000000000000000000000000000000000000000001",
        "nonce": "0x1",
        "chainId": "0x14a34"
      },
      "additionalContracts": [],
      "isFixedGasLimit": false
    },
    {
      "hash": "0x4fb55328418fa181bce22f4b977ec27918b345afc5dc6cc829e26dd431a7481a",
      "transactionType": "CALL",
      "contractName": null,
      "contractAddress": "0x1be33eae451652e47d8308e64cafb46063006e7d",
      "function": "confirmShipment(bytes32,string)",
      "arguments": [
        "0x34c12e9f18f8c2ffc43f67784f7f92aa39dfbe474244d3c68bb46fc26be43152",
        "TRACKING-XYZ"
      ],
      "transaction": {
        "from": "0x82bfdbff67eeab47f8af9032df7102566b7b06ee",
        "to": "0x1be33eae451652e47d8308e64cafb46063006e7d",
        "gas": "0xf0a9",
        "value": "0x0",
        "input": "0x53923f2534c12e9f18f8c2ffc43f67784f7f92aa39dfbe474244d3c68bb46fc26be431520000000000000000000000000000000000000000000000000000000000000040000000000000000000000000000000000000000000000000000000000000000c545241434b494e472d58595a0000000000000000000000000000000000000000",
        "nonce": "0x0",
        "chainId": "0x14a34"
      },
      "additionalContracts": [],
      "isFixedGasLimit": false
    },
    {
      "hash": "0xa764b65b091768acfa412e2a72074c1b891536c6cbefda17b61b7a34d5835b38",
      "transactionType": "CALL",
      "contractName": null,
      "contractAddress": "0x1be33eae451652e47d8308e64cafb46063006e7d",
      "function": "confirmReceipt(bytes32)",
      "arguments": [
        "0x34c12e9f18f8c2ffc43f67784f7f92aa39dfbe474244d3c68bb46fc26be43152"
      ],
      "transaction": {
        "from": "0xa4cc4c627ba3ce9d072487ad1a7df3a442156655",
        "to": "0x1be33eae451652e47d8308e64cafb46063006e7d",
        "gas": "0x71472",
        "value": "0x0",
        "input": "0x3453969434c12e9f18f8c2ffc43f67784f7f92aa39dfbe474244d3c68bb46fc26be43152",
        "nonce": "0x2",
        "chainId": "0x14a34"
      },
      "additionalContracts": [],
      "isFixedGasLimit": false
    },
    {
      "hash": "0x14d727be6ace33df43274d69c2997cce1ccd202515ed25f5c2dd42acc077f978",
      "transactionType": "CALL",
      "contractName": null,
      "contractAddress": "0x213e537c2d0aa1feec5c9ee55de6a501f8270248",
      "function": "approve(address,uint256)",
      "arguments": [
        "0x3CD3c4F3619865dd9181baFe7d431102FC8d008a",
        "1500000000"
      ],
      "transaction": {
        "from": "0xb2d7b5cb601c4b3bfe5c5996ee3a3cac6ed0b324",
        "to": "0x213e537c2d0aa1feec5c9ee55de6a501f8270248",
        "gas": "0x13f33",
        "value": "0x0",
        "input": "0x095ea7b30000000000000000000000003cd3c4f3619865dd9181bafe7d431102fc8d008a0000000000000000000000000000000000000000000000000000000059682f00",
        "nonce": "0x0",
        "chainId": "0x14a34"
      },
      "additionalContracts": [],
      "isFixedGasLimit": false
    },
    {
      "hash": "0x9213bbec87b60f38dccf698c0ec9e8eb17b5a6e2f989f20d5c45f6ed64dea901",
      "transactionType": "CALL",
      "contractName": null,
      "contractAddress": "0x3cd3c4f3619865dd9181bafe7d431102fc8d008a",
      "function": "stake(uint256)",
      "arguments": [
        "1500000000"
      ],
      "transaction": {
        "from": "0xb2d7b5cb601c4b3bfe5c5996ee3a3cac6ed0b324",
        "to": "0x3cd3c4f3619865dd9181bafe7d431102fc8d008a",
        "gas": "0x3d6e1",
        "value": "0x0",
        "input": "0xa694fc3a0000000000000000000000000000000000000000000000000000000059682f00",
        "nonce": "0x1",
        "chainId": "0x14a34"
      },
      "additionalContracts": [],
      "isFixedGasLimit": false
    },
    {
      "hash": "0x96378b6dd88ca27292bb8fccfcb53d01c59254adb7bba61e26000d20e847f459",
      "transactionType": "CALL",
      "contractName": null,
      "contractAddress": "0x3cd3c4f3619865dd9181bafe7d431102fc8d008a",
      "function": "emergencyWithdraw()",
      "arguments": [],
      "transaction": {
        "from": "0xb2d7b5cb601c4b3bfe5c5996ee3a3cac6ed0b324",
        "to": "0x3cd3c4f3619865dd9181bafe7d431102fc8d008a",
        "gas": "0x19c08",
        "value": "0x0",
        "input": "0xdb2e21bc",
        "nonce": "0x2",
        "chainId": "0x14a34"
      },
      "additionalContracts": [],
      "isFixedGasLimit": false
    },
    {
      "hash": "0x66e3bc475ef40b82f405c8384035ffbab36e9332a400f69e5379d0b5e3bb86e2",
      "transactionType": "CALL",
      "contractName": null,
      "contractAddress": "0xe1e3e2bed6312d5fb529d05eed8976f8b6ce6bb7",
      "function": "updateAnswer(int256)",
      "arguments": [
        "2200000000000000000"
      ],
      "transaction": {
        "from": "0xfae469337b520548ca8b294379ef774b6e1b25ca",
        "to": "0xe1e3e2bed6312d5fb529d05eed8976f8b6ce6bb7",
        "gas": "0xb356",
        "value": "0x0",
        "input": "0xa87a20ce0000000000000000000000000000000000000000000000001e87f85809dc0000",
        "nonce": "0x42",
        "chainId": "0x14a34"
      },
      "additionalContracts": [],
      "isFixedGasLimit": false
    },
    {
      "hash": "0xb47a0e225e44bd88bc9becd5836621721fe662089af09cf15a59809c3b421986",
      "transactionType": "CALL",
      "contractName": null,
      "contractAddress": "0x719aec96d5cd984e66b6c8f767d0e261e248a0ea",
      "function": "syncPrice()",
      "arguments": [],
      "transaction": {
        "from": "0xfae469337b520548ca8b294379ef774b6e1b25ca",
        "to": "0x719aec96d5cd984e66b6c8f767d0e261e248a0ea",
        "gas": "0x1f409",
        "value": "0x0",
        "input": "0x3f438fbb",
        "nonce": "0x43",
        "chainId": "0x14a34"
      },
      "additionalContracts": [],
      "isFixedGasLimit": false
    },
    {
      "hash": "0xde557a1db4052c7b4e5b388207a2acda2ca4fcf08b8e2e73eada001f13d1d60e",
      "transactionType": "CALL",
      "contractName": null,
      "contractAddress": "0x90309441d63e793df9b715a45e2ec874c2ec3c2e",
      "function": "claim(uint256,uint256,bytes)",
      "arguments": [
        "100000000",
        "1761025444",
        "0x7693ffdca2c99a1685dc439181185880460accaa40bcc5201b060c185200be5410e75a6b068641e9c7363a2aa6d89acd2f53090189938b202d44207950f4e4ce1c"
      ],
      "transaction": {
        "from": "0xa4cc4c627ba3ce9d072487ad1a7df3a442156655",
        "to": "0x90309441d63e793df9b715a45e2ec874c2ec3c2e",
        "gas": "0x322fa",
        "value": "0x0",
        "input": "0x5eddd1570000000000000000000000000000000000000000000000000000000005f5e1000000000000000000000000000000000000000000000000000000000068f71da4000000000000000000000000000000000000000000000000000000000000006000000000000000000000000000000000000000000000000000000000000000417693ffdca2c99a1685dc439181185880460accaa40bcc5201b060c185200be5410e75a6b068641e9c7363a2aa6d89acd2f53090189938b202d44207950f4e4ce1c00000000000000000000000000000000000000000000000000000000000000",
        "nonce": "0x3",
        "chainId": "0x14a34"
      },
      "additionalContracts": [],
      "isFixedGasLimit": false
    },
    {
      "hash": "0xcf040bdbe3679f13dd1c1805859115547616a2d69f1bf43ff1a5f8ce324a9e0d",
      "transactionType": "CALL",
      "contractName": null,
      "contractAddress": "0xd8fffa68afde02c2fd13b305f7c53475d56a7896",
      "function": "createOrUpdateSchedule(address,uint256,uint64,uint64,uint64)",
      "arguments": [
        "0x0EbE7e5f25a59ECB5d33A2b956DE687E4E13E16d",
        "800000000",
        "1760247844",
        "0",
        "604800"
      ],
      "transaction": {
        "from": "0xfae469337b520548ca8b294379ef774b6e1b25ca",
        "to": "0xd8fffa68afde02c2fd13b305f7c53475d56a7896",
        "gas": "0x1cad5",
        "value": "0x0",
        "input": "0xf51d74780000000000000000000000000ebe7e5f25a59ecb5d33a2b956de687e4e13e16d000000000000000000000000000000000000000000000000000000002faf08000000000000000000000000000000000000000000000000000000000068eb402400000000000000000000000000000000000000000000000000000000000000000000000000000000000000000000000000000000000000000000000000093a80",
        "nonce": "0x44",
        "chainId": "0x14a34"
      },
      "additionalContracts": [],
      "isFixedGasLimit": false
    },
    {
      "hash": "0xbb67feb541ba507e25ae7c6c1733a2de461246aa79db027448a5f3d2993c5365",
      "transactionType": "CALL",
      "contractName": null,
      "contractAddress": "0xd8fffa68afde02c2fd13b305f7c53475d56a7896",
      "function": "release()",
      "arguments": [],
      "transaction": {
        "from": "0x0ebe7e5f25a59ecb5d33a2b956de687e4e13e16d",
        "to": "0xd8fffa68afde02c2fd13b305f7c53475d56a7896",
        "gas": "0x26de5",
        "value": "0x0",
        "input": "0x86d1a69f",
        "nonce": "0x0",
        "chainId": "0x14a34"
      },
      "additionalContracts": [],
      "isFixedGasLimit": false
    }
  ],
  "receipts": [
    {
      "status": "0x1",
      "cumulativeGasUsed": "0x8330c4",
      "logs": [
        {
          "address": "0xe5e4b610e5634103550defd4f1e739946a984178",
          "topics": [
            "0x8a18420a667694f8ac265b56b1f3f923ea12cb25407346b4ba3102d0293e2e21",
            "0xc8ebb06d7fa42d0cb3f1b1c0682530373841ce9e1b50edce5d2b9cf0a0069af3"
          ],
          "data": "0x0000000000000000000000000000000000000000000000000000000000000001",
          "blockHash": "0x768f67854bdfe80326109f722519ee82d862ae4764ba05986b57a0de88561d3a",
          "blockNumber": "0x1f08dfb",
          "blockTimestamp": "0x68f47ad6",
          "transactionHash": "0x564a913433ba41882d65c728014ca23706d8b05028ba74af66e61b53e7748348",
          "transactionIndex": "0x2b",
          "logIndex": "0x90",
          "removed": false
        }
      ],
      "logsBloom": "0x00000000000000000000000000000000004200000000000000000000000000000000000000000000000000000000000000000000000000000000000000000000000000400000000001000000000000000000000000000000000000000000000000000000010000000000000000000000000000000000000000000000000000000000000000000000000000000000000000000000000000000000000000400000000000000000000000000000000000000000000000000000000000000000000000000000000000000000000000000000000000000000000000100000000000000000000000820000000000000000000000000000000000000000000000000000",
      "type": "0x2",
      "transactionHash": "0x564a913433ba41882d65c728014ca23706d8b05028ba74af66e61b53e7748348",
      "transactionIndex": "0x2b",
      "blockHash": "0x768f67854bdfe80326109f722519ee82d862ae4764ba05986b57a0de88561d3a",
      "blockNumber": "0x1f08dfb",
      "gasUsed": "0x84d2",
      "effectiveGasPrice": "0xf428d",
      "from": "0xfae469337b520548ca8b294379ef774b6e1b25ca",
      "to": "0xe5e4b610e5634103550defd4f1e739946a984178",
      "contractAddress": null,
      "l1BaseFeeScalar": "0x44d",
      "l1BlobBaseFee": "0x1",
      "l1BlobBaseFeeScalar": "0xa118b",
      "l1Fee": "0x50",
      "l1GasPrice": "0x8",
      "l1GasUsed": "0x640"
    },
    {
      "status": "0x1",
      "cumulativeGasUsed": "0x455a33",
      "logs": [
        {
          "address": "0xe5e4b610e5634103550defd4f1e739946a984178",
          "topics": [
            "0x8a18420a667694f8ac265b56b1f3f923ea12cb25407346b4ba3102d0293e2e21",
            "0x7e4162b8f5b014391ff15b7ccca89c2cd6b2656c814e769a1d7d3e0dd6b60cb3"
          ],
          "data": "0x0000000000000000000000000000000000000000000000000000000000000001",
          "blockHash": "0x2ad08b34bf6e93af126ef86d61e8744747448bfdc8d6658e93aafc28e0ba6554",
          "blockNumber": "0x1f08dfc",
          "blockTimestamp": "0x68f47ad8",
          "transactionHash": "0x8b0753c3e12ad24493b43239b9e3efd98d3ad52c4c1cdfc56c4f2479cc8c6de7",
          "transactionIndex": "0x48",
          "logIndex": "0xa0",
          "removed": false
        }
      ],
      "logsBloom": "0x00000000000000000000000000000000000200000080000000000000000000000000000000000000000000000000000000000000000000000000000000000000000000000000000000000000000000000000000000000000000000000000000000000000210000000000000000000000000000000000000000000000000000000000000000000000000000000000000000000001000000000000000000400000000000000000000000000000000000000000000000000000000000000000000000000000000000000000000000000000000000000000000000100000000000000000000000820000000000000000000000000000000000000000000000000000",
      "type": "0x2",
      "transactionHash": "0x8b0753c3e12ad24493b43239b9e3efd98d3ad52c4c1cdfc56c4f2479cc8c6de7",
      "transactionIndex": "0x48",
      "blockHash": "0x2ad08b34bf6e93af126ef86d61e8744747448bfdc8d6658e93aafc28e0ba6554",
      "blockNumber": "0x1f08dfc",
      "gasUsed": "0x84d2",
      "effectiveGasPrice": "0xf428e",
      "from": "0xfae469337b520548ca8b294379ef774b6e1b25ca",
      "to": "0xe5e4b610e5634103550defd4f1e739946a984178",
      "contractAddress": null,
      "l1BaseFeeScalar": "0x44d",
      "l1BlobBaseFee": "0x1",
      "l1BlobBaseFeeScalar": "0xa118b",
      "l1Fee": "0x50",
      "l1GasPrice": "0x8",
      "l1GasUsed": "0x640"
    },
    {
      "status": "0x1",
      "cumulativeGasUsed": "0xa4501e",
      "logs": [
        {
          "address": "0xe5e4b610e5634103550defd4f1e739946a984178",
          "topics": [
            "0x8a18420a667694f8ac265b56b1f3f923ea12cb25407346b4ba3102d0293e2e21",
            "0x711cb34a57fccb25603a4d79e3333d413b52760337a4a9dd6cfab714b0a4cb05"
          ],
          "data": "0x0000000000000000000000000000000000000000000000000000000000000001",
          "blockHash": "0xf7f694fe4025d607c066e7cc591ccb86ae3408c30a5340e4204d41317af0973e",
          "blockNumber": "0x1f08dfd",
          "blockTimestamp": "0x68f47ada",
          "transactionHash": "0xf7860ab1aab5ad187a38ee7d91ddf799c2b2d7619b18075797226d9cb747fd7a",
          "transactionIndex": "0x27",
          "logIndex": "0x31",
          "removed": false
        }
      ],
      "logsBloom": "0x00000000000000000000000000000000000200000000000000000000000010000000000000000000000000000000000000000000000000000000000000000000000000000000000000000000000000000000000000000000000000000000000000000000010000000000000000000000000000010000000000000000000000000000000000000000000000000000000000000000000000000000000000400000000000000000000000000000000000000000004000000000000000000000000000000000000000000000000000000000000000000000000000100000000000000000000000820000000000000000000000000000000000000000000000000000",
      "type": "0x2",
      "transactionHash": "0xf7860ab1aab5ad187a38ee7d91ddf799c2b2d7619b18075797226d9cb747fd7a",
      "transactionIndex": "0x27",
      "blockHash": "0xf7f694fe4025d607c066e7cc591ccb86ae3408c30a5340e4204d41317af0973e",
      "blockNumber": "0x1f08dfd",
      "gasUsed": "0x84d2",
      "effectiveGasPrice": "0xf428d",
      "from": "0xfae469337b520548ca8b294379ef774b6e1b25ca",
      "to": "0xe5e4b610e5634103550defd4f1e739946a984178",
      "contractAddress": null,
      "l1BaseFeeScalar": "0x44d",
      "l1BlobBaseFee": "0x1",
      "l1BlobBaseFeeScalar": "0xa118b",
      "l1Fee": "0x50",
      "l1GasPrice": "0x8",
      "l1GasUsed": "0x640"
    },
    {
      "status": "0x1",
      "cumulativeGasUsed": "0x3176d5",
      "logs": [
        {
          "address": "0xe5e4b610e5634103550defd4f1e739946a984178",
          "topics": [
            "0x8a18420a667694f8ac265b56b1f3f923ea12cb25407346b4ba3102d0293e2e21",
            "0x31f9e0882bae19d9d7cb4cbd9e2256c11629f66630667ffaedf00c629bff42b8"
          ],
          "data": "0x0000000000000000000000000000000000000000000000000000000000000001",
          "blockHash": "0x936ca23ca93d6a94135307c7dbdb8d892ef1c42f42585db52408bae9b2eef6d7",
          "blockNumber": "0x1f08dfe",
          "blockTimestamp": "0x68f47adc",
          "transactionHash": "0x18bdb35b24e6218a6bff00f75146e135c372228387996fb313cc69959a789ebf",
          "transactionIndex": "0x27",
          "logIndex": "0x79",
          "removed": false
        }
      ],
      "logsBloom": "0x00000000000000000000000000004000000200000000000000000000000000000000000000000000000000000000000000000000000000000000000000000000000000000000000002000000000000000000000000020000000000000000000000000000010000000000000000000000000000000000000000000000000000000000000000000000000000000000000000000000000000000000000000400000000000000000000000000000000000000000000000000000000000000000000000000000000000000000000000000000000000000000000000100000000000000000000000820000000000000000000000000000000000000000000000000000",
      "type": "0x2",
      "transactionHash": "0x18bdb35b24e6218a6bff00f75146e135c372228387996fb313cc69959a789ebf",
      "transactionIndex": "0x27",
      "blockHash": "0x936ca23ca93d6a94135307c7dbdb8d892ef1c42f42585db52408bae9b2eef6d7",
      "blockNumber": "0x1f08dfe",
      "gasUsed": "0x84d2",
      "effectiveGasPrice": "0xf428e",
      "from": "0xfae469337b520548ca8b294379ef774b6e1b25ca",
      "to": "0xe5e4b610e5634103550defd4f1e739946a984178",
      "contractAddress": null,
      "l1BaseFeeScalar": "0x44d",
      "l1BlobBaseFee": "0x1",
      "l1BlobBaseFeeScalar": "0xa118b",
      "l1Fee": "0x50",
      "l1GasPrice": "0x8",
      "l1GasUsed": "0x640"
    },
    {
      "status": "0x1",
      "cumulativeGasUsed": "0x3446a2",
      "logs": [
        {
          "address": "0xe5e4b610e5634103550defd4f1e739946a984178",
          "topics": [
            "0x8a18420a667694f8ac265b56b1f3f923ea12cb25407346b4ba3102d0293e2e21",
            "0x163670f575c7fb5fe5e1e19d9184c0573c08fbcda295a74e91c2e0b72734b5f7"
          ],
          "data": "0x0000000000000000000000000000000000000000000000000000000000000001",
          "blockHash": "0x1f5ee88809c00b3b1e3933549dab88c5a4c3d5a6f95428b20b102da5fe7a0fb0",
          "blockNumber": "0x1f08dff",
          "blockTimestamp": "0x68f47ade",
          "transactionHash": "0xf413da7d819f8e61a93f99b32bd1d42a3aa1bdd7d88514e70d4711c209a4a2c5",
          "transactionIndex": "0x20",
          "logIndex": "0x51",
          "removed": false
        }
      ],
      "logsBloom": "0x00000000000000000000000000000000000200000000000000000800000000000000000000000000080000000000000000000000000010000000000000000000000000000000000000000000000000000000000000000000000000000000000000000000010000000000000000000000000000000000000000000000000000000000000000000000000000000000000000000000000000000000000000400000000000000000000000000000000000000000000000000000000000000000000000000000000000000000000000000000000000000000000000100000000000000000000000820000000000000000000000000000000000000000000000000000",
      "type": "0x2",
      "transactionHash": "0xf413da7d819f8e61a93f99b32bd1d42a3aa1bdd7d88514e70d4711c209a4a2c5",
      "transactionIndex": "0x20",
      "blockHash": "0x1f5ee88809c00b3b1e3933549dab88c5a4c3d5a6f95428b20b102da5fe7a0fb0",
      "blockNumber": "0x1f08dff",
      "gasUsed": "0x84d2",
      "effectiveGasPrice": "0xf428e",
      "from": "0xfae469337b520548ca8b294379ef774b6e1b25ca",
      "to": "0xe5e4b610e5634103550defd4f1e739946a984178",
      "contractAddress": null,
      "l1BaseFeeScalar": "0x44d",
      "l1BlobBaseFee": "0x1",
      "l1BlobBaseFeeScalar": "0xa118b",
      "l1Fee": "0x50",
      "l1GasPrice": "0x8",
      "l1GasUsed": "0x640"
    },
    {
      "status": "0x1",
      "cumulativeGasUsed": "0x376ac7",
      "logs": [
        {
          "address": "0xe5e4b610e5634103550defd4f1e739946a984178",
          "topics": [
            "0x8a18420a667694f8ac265b56b1f3f923ea12cb25407346b4ba3102d0293e2e21",
            "0xc6a67d18a30a092f9fbe00f0ad680d4aed33d4247ded19775043b4583eab2899"
          ],
          "data": "0x0000000000000000000000000000000000000000000000000000000000000001",
          "blockHash": "0xa000dde4748f9c223770ad4260c04bf96dfe05e8edd4f6d07a7b22b62c2366a0",
          "blockNumber": "0x1f08e00",
          "blockTimestamp": "0x68f47ae0",
          "transactionHash": "0xc8986fb4b399cdf8866add8d0c1be7d5f952129fcdc5f6fce293e5ffe01e3018",
          "transactionIndex": "0x2e",
          "logIndex": "0x30",
          "removed": false
        }
      ],
      "logsBloom": "0x00000000000000000000000000000000000200000000000000000000000000000000000000000000000000000000000000000000000000000000000000000000000400000000000100000000000000000000000000000000000000000000000000000000010000000000000000000000000000000000000000000000000000000000000000000200000000000000000000000000000000000000000000400000000000000000000000000000000000000000000000000000000000000000000000000000000000000000000000000000000000000000000000100000000000000000000000820000000000000000000000000000000000000000000000000000",
      "type": "0x2",
      "transactionHash": "0xc8986fb4b399cdf8866add8d0c1be7d5f952129fcdc5f6fce293e5ffe01e3018",
      "transactionIndex": "0x2e",
      "blockHash": "0xa000dde4748f9c223770ad4260c04bf96dfe05e8edd4f6d07a7b22b62c2366a0",
      "blockNumber": "0x1f08e00",
      "gasUsed": "0x84c6",
      "effectiveGasPrice": "0xf428e",
      "from": "0xfae469337b520548ca8b294379ef774b6e1b25ca",
      "to": "0xe5e4b610e5634103550defd4f1e739946a984178",
      "contractAddress": null,
      "l1BaseFeeScalar": "0x44d",
      "l1BlobBaseFee": "0x1",
      "l1BlobBaseFeeScalar": "0xa118b",
      "l1Fee": "0x50",
      "l1GasPrice": "0x8",
      "l1GasUsed": "0x640"
    },
    {
      "status": "0x1",
      "cumulativeGasUsed": "0xcd844d",
      "logs": [
        {
          "address": "0xe5e4b610e5634103550defd4f1e739946a984178",
          "topics": [
            "0x8a18420a667694f8ac265b56b1f3f923ea12cb25407346b4ba3102d0293e2e21",
            "0x586fce3c55c92a95befa20362bbd4d909e3155d3d7ee4e6cd6c0d5e9d91e98fe"
          ],
          "data": "0x0000000000000000000000000000000000000000000000000000000000000001",
          "blockHash": "0x0d102c508cb7bff2b969e9965fbab62dd1388ababeb6fcb42d430d879ca4567a",
          "blockNumber": "0x1f08e01",
          "blockTimestamp": "0x68f47ae2",
          "transactionHash": "0xebca66f5b3d3b665e16822cf934894daebd65b9ce0446b1e6ec541cdeeab6d48",
          "transactionIndex": "0x49",
          "logIndex": "0x191",
          "removed": false
        }
      ],
      "logsBloom": "0x00000000000000000000000000000000000200000000000000000000400000000000000000000000000000000000000000000000000000000000000000000000400000000000000000000000000000000000000000000000000000000000000000000000010000000000000000000000000000000000000000000000000000000000000000000000000000000000000000000000000000000000000000400000000000000000000000000000000000000000000000000000000000000000000000000000000000000000000000000400000000000000000000100000000000000000000000820000000000000000000000000000000000000000000000000000",
      "type": "0x2",
      "transactionHash": "0xebca66f5b3d3b665e16822cf934894daebd65b9ce0446b1e6ec541cdeeab6d48",
      "transactionIndex": "0x49",
      "blockHash": "0x0d102c508cb7bff2b969e9965fbab62dd1388ababeb6fcb42d430d879ca4567a",
      "blockNumber": "0x1f08e01",
      "gasUsed": "0x84d2",
      "effectiveGasPrice": "0xf428d",
      "from": "0xfae469337b520548ca8b294379ef774b6e1b25ca",
      "to": "0xe5e4b610e5634103550defd4f1e739946a984178",
      "contractAddress": null,
      "l1BaseFeeScalar": "0x44d",
      "l1BlobBaseFee": "0x1",
      "l1BlobBaseFeeScalar": "0xa118b",
      "l1Fee": "0x50",
      "l1GasPrice": "0x8",
      "l1GasUsed": "0x640"
    },
    {
      "status": "0x1",
      "cumulativeGasUsed": "0x998d72",
      "logs": [
        {
          "address": "0xe80b498652303ff7eb113d70861f677df6029ea6",
          "topics": [
            "0xcb29ab590819cd2db0d1579a18d3b436aa55c8cba348bb15adf19163caa5a122",
            "0x0000000000000000000000001be33eae451652e47d8308e64cafb46063006e7d"
          ],
          "data": "0x0000000000000000000000000000000000000000000000000000000000000001",
          "blockHash": "0xfbce72a0c1b37426f83a168497717638597fb658255eaa817c9786a93b77d5cd",
          "blockNumber": "0x1f08e02",
          "blockTimestamp": "0x68f47ae4",
          "transactionHash": "0xcc82db812135f1d99f41e91ad5ecdccbe6c48a7c9d6c911609f52af9238a5e74",
          "transactionIndex": "0x53",
          "logIndex": "0xf2",
          "removed": false
        }
      ],
      "logsBloom": "0x00000000000000000000010000000000000000000000000000000000000000000000000000000000000000000000000000000000040000000000000000000000000000000000000000000000000000000000000000000000000000000000000000000000000000000000000000000000000000000000000000000000000200000000000001000000000000000400000020000000000000000000000000000000000000000000000000000000000000000000000000000000000000000001000000000000000000000000000000000000000000000000000000000000000000000020000000000000000000000000000000000000000000000000000000010000",
      "type": "0x2",
      "transactionHash": "0xcc82db812135f1d99f41e91ad5ecdccbe6c48a7c9d6c911609f52af9238a5e74",
      "transactionIndex": "0x53",
      "blockHash": "0xfbce72a0c1b37426f83a168497717638597fb658255eaa817c9786a93b77d5cd",
      "blockNumber": "0x1f08e02",
      "gasUsed": "0x8340",
      "effectiveGasPrice": "0xf428d",
      "from": "0xfae469337b520548ca8b294379ef774b6e1b25ca",
      "to": "0xe80b498652303ff7eb113d70861f677df6029ea6",
      "contractAddress": null,
      "l1BaseFeeScalar": "0x44d",
      "l1BlobBaseFee": "0x1",
      "l1BlobBaseFeeScalar": "0xa118b",
      "l1Fee": "0x50",
      "l1GasPrice": "0x8",
      "l1GasUsed": "0x640"
    },
    {
      "status": "0x1",
      "cumulativeGasUsed": "0x9ae87d",
      "logs": [
        {
          "address": "0xe80b498652303ff7eb113d70861f677df6029ea6",
          "topics": [
            "0xcb29ab590819cd2db0d1579a18d3b436aa55c8cba348bb15adf19163caa5a122",
            "0x0000000000000000000000003cd3c4f3619865dd9181bafe7d431102fc8d008a"
          ],
          "data": "0x0000000000000000000000000000000000000000000000000000000000000001",
          "blockHash": "0x2b235fd9543222a6a85925bf62ea402d986646694dba11e06dc89e58cfc1cd11",
          "blockNumber": "0x1f08e03",
          "blockTimestamp": "0x68f47ae6",
          "transactionHash": "0x974bc60a780213e9c8519363b0ba38ba7d7ecd203b172be19d14cb8f61e511d2",
          "transactionIndex": "0x2e",
          "logIndex": "0xcb",
          "removed": false
        }
      ],
      "logsBloom": "0x00000000000000000000010000000000000000000000000000000000000000010000000000000000000000000000000000000000040000000000000000000000000000000002000000000000000000000000000000000000000000002000000000000000000000000000000000000000000000000000000000000000000200000000000000000000000000000400000020000000000000000000000000000000000000000000000000000000000000000000000000000000000000000000000000000000000000000000000000000000000000000000000000000000000000000000000000000000000000000000000000000000000000000000000000010000",
      "type": "0x2",
      "transactionHash": "0x974bc60a780213e9c8519363b0ba38ba7d7ecd203b172be19d14cb8f61e511d2",
      "transactionIndex": "0x2e",
      "blockHash": "0x2b235fd9543222a6a85925bf62ea402d986646694dba11e06dc89e58cfc1cd11",
      "blockNumber": "0x1f08e03",
      "gasUsed": "0x8340",
      "effectiveGasPrice": "0xf428d",
      "from": "0xfae469337b520548ca8b294379ef774b6e1b25ca",
      "to": "0xe80b498652303ff7eb113d70861f677df6029ea6",
      "contractAddress": null,
      "l1BaseFeeScalar": "0x44d",
      "l1BlobBaseFee": "0x1",
      "l1BlobBaseFeeScalar": "0xa118b",
      "l1Fee": "0x50",
      "l1GasPrice": "0x8",
      "l1GasUsed": "0x640"
    },
    {
      "status": "0x1",
      "cumulativeGasUsed": "0x6b79e4",
      "logs": [
        {
          "address": "0x9b2b539938db144baae9f14512b8b25da40b178d",
          "topics": [
            "0xd1a4b4c6f4381af9f607e104d03b32fb43c7c6d4ef68bf785d6efae73fd2b614",
            "0x0000000000000000000000001be33eae451652e47d8308e64cafb46063006e7d"
          ],
          "data": "0x00000000000000000000000000000000000000000000000000000000000000010000000000000000000000000000000000000000000000000000000000000000",
          "blockHash": "0x40c94410a4349fca5fc3c40df442a05b6cc09dd7edadc732e26ee585eac284eb",
          "blockNumber": "0x1f08e04",
          "blockTimestamp": "0x68f47ae8",
          "transactionHash": "0x0a0c3fe790353709de82a3aa70784b2277a901fc9e37a73051bd2a371f3c6280",
          "transactionIndex": "0x2c",
          "logIndex": "0x58",
          "removed": false
        }
      ],
      "logsBloom": "0x00000000000000000000000000000000000000000000000000000000000000000000000000000000000000040000000000000000000000000000000000000000000400000000000000000000000000000000000000000000000000000000000000000000000000000000000000000000000000000000000000000000000000000000000011000000000000000000000000000000000000000000000000000000000000000000000000000000000000000000000010000000000000000001000000000000040000000000000000000000000000000000000000000000000000000020000000000000000000000000000010000000000000000000000000000000",
      "type": "0x2",
      "transactionHash": "0x0a0c3fe790353709de82a3aa70784b2277a901fc9e37a73051bd2a371f3c6280",
      "transactionIndex": "0x2c",
      "blockHash": "0x40c94410a4349fca5fc3c40df442a05b6cc09dd7edadc732e26ee585eac284eb",
      "blockNumber": "0x1f08e04",
      "gasUsed": "0xabb7",
      "effectiveGasPrice": "0xf428d",
      "from": "0xfae469337b520548ca8b294379ef774b6e1b25ca",
      "to": "0x9b2b539938db144baae9f14512b8b25da40b178d",
      "contractAddress": null,
      "l1BaseFeeScalar": "0x44d",
      "l1BlobBaseFee": "0x1",
      "l1BlobBaseFeeScalar": "0xa118b",
      "l1Fee": "0xcf",
      "l1GasPrice": "0x8",
      "l1GasUsed": "0x640"
    },
    {
      "status": "0x1",
      "cumulativeGasUsed": "0x8f3bfb",
      "logs": [
        {
          "address": "0x213e537c2d0aa1feec5c9ee55de6a501f8270248",
          "topics": [
            "0xddf252ad1be2c89b69c2b068fc378daa952ba7f163c4a11628f55a4df523b3ef",
            "0x0000000000000000000000009b2b539938db144baae9f14512b8b25da40b178d",
            "0x000000000000000000000000a4cc4c627ba3ce9d072487ad1a7df3a442156655"
          ],
          "data": "0x0000000000000000000000000000000000000000000000000000000047868c00",
          "blockHash": "0xa40a614a2369f94c9b2f33407641a883e280eb004d3cfe318e1f3fd83e98e8d3",
          "blockNumber": "0x1f08e05",
          "blockTimestamp": "0x68f47aea",
          "transactionHash": "0x132cb3b78eae8887ae91d4698abcbe0bf5c00e79d09b2c347133ed9a18adb5f6",
          "transactionIndex": "0x41",
          "logIndex": "0x7d",
          "removed": false
        },
        {
          "address": "0x9b2b539938db144baae9f14512b8b25da40b178d",
          "topics": [
            "0xd1c19fbcd4551a5edfb66d43d2e337c04837afda3482b42bdf569a8fccdae5fb",
            "0x000000000000000000000000213e537c2d0aa1feec5c9ee55de6a501f8270248",
            "0x000000000000000000000000a4cc4c627ba3ce9d072487ad1a7df3a442156655"
          ],
          "data": "0x0000000000000000000000000000000000000000000000000000000047868c00",
          "blockHash": "0xa40a614a2369f94c9b2f33407641a883e280eb004d3cfe318e1f3fd83e98e8d3",
          "blockNumber": "0x1f08e05",
          "blockTimestamp": "0x68f47aea",
          "transactionHash": "0x132cb3b78eae8887ae91d4698abcbe0bf5c00e79d09b2c347133ed9a18adb5f6",
          "transactionIndex": "0x41",
          "logIndex": "0x7e",
          "removed": false
        }
      ],
      "logsBloom": "0x00000000000000000000000000000000000000000000000000000000000000000000010020000000000000000000000000000000000004000000000000002000000000000000000000010008000002000000000000000000000000001000000000000000400000000008000000000000000000000000000000000010200000000000000010000000000000200000000000000000000000000000000000000000000000000000000002000000000000000010000000000000000000000000000000000002040000000000000000000000000000000000000000000010000000000000000000000000000000080000000010000000000000000000000000000000",
      "type": "0x2",
      "transactionHash": "0x132cb3b78eae8887ae91d4698abcbe0bf5c00e79d09b2c347133ed9a18adb5f6",
      "transactionIndex": "0x41",
      "blockHash": "0xa40a614a2369f94c9b2f33407641a883e280eb004d3cfe318e1f3fd83e98e8d3",
      "blockNumber": "0x1f08e05",
      "gasUsed": "0x1901a",
      "effectiveGasPrice": "0xf428d",
      "from": "0xfae469337b520548ca8b294379ef774b6e1b25ca",
      "to": "0x9b2b539938db144baae9f14512b8b25da40b178d",
      "contractAddress": null,
      "l1BaseFeeScalar": "0x44d",
      "l1BlobBaseFee": "0x1",
      "l1BlobBaseFeeScalar": "0xa118b",
      "l1Fee": "0x50",
      "l1GasPrice": "0x8",
      "l1GasUsed": "0x6bf"
    },
    {
      "status": "0x1",
      "cumulativeGasUsed": "0x332448",
      "logs": [
        {
          "address": "0x213e537c2d0aa1feec5c9ee55de6a501f8270248",
          "topics": [
            "0xddf252ad1be2c89b69c2b068fc378daa952ba7f163c4a11628f55a4df523b3ef",
            "0x0000000000000000000000009b2b539938db144baae9f14512b8b25da40b178d",
            "0x000000000000000000000000b2d7b5cb601c4b3bfe5c5996ee3a3cac6ed0b324"
          ],
          "data": "0x0000000000000000000000000000000000000000000000000000000077359400",
          "blockHash": "0x8badc6a63c6bd904a3c2d1e523b8c26da1924d8d6ab191568d7791690243585c",
          "blockNumber": "0x1f08e06",
          "blockTimestamp": "0x68f47aec",
          "transactionHash": "0x3bdeb1c121523cee5d5c75c76e7b7f6bcff5508a2525fefcbd70645a11a7b8c7",
          "transactionIndex": "0x3e",
          "logIndex": "0x49",
          "removed": false
        },
        {
          "address": "0x9b2b539938db144baae9f14512b8b25da40b178d",
          "topics": [
            "0xd1c19fbcd4551a5edfb66d43d2e337c04837afda3482b42bdf569a8fccdae5fb",
            "0x000000000000000000000000213e537c2d0aa1feec5c9ee55de6a501f8270248",
            "0x000000000000000000000000b2d7b5cb601c4b3bfe5c5996ee3a3cac6ed0b324"
          ],
          "data": "0x0000000000000000000000000000000000000000000000000000000077359400",
          "blockHash": "0x8badc6a63c6bd904a3c2d1e523b8c26da1924d8d6ab191568d7791690243585c",
          "blockNumber": "0x1f08e06",
          "blockTimestamp": "0x68f47aec",
          "transactionHash": "0x3bdeb1c121523cee5d5c75c76e7b7f6bcff5508a2525fefcbd70645a11a7b8c7",
          "transactionIndex": "0x3e",
          "logIndex": "0x4a",
          "removed": false
        }
      ],
      "logsBloom": "0x00000000000000000000000000000000000000000000000000000000000000000000010020000000000000000000000000000000000000000000000000002000000000000000000000000008000002000000000000000000000000001000000000000000400000000008000000000000000000000000000000000010208000000000000010000000000000000000000000000000000000000000000000800000020000000000000002000000000000000010000000000000000000000000000000000002040000000000000000000000000000000000000000000010000000000000000000000000000000080000000010000000000000000000000000000000",
      "type": "0x2",
      "transactionHash": "0x3bdeb1c121523cee5d5c75c76e7b7f6bcff5508a2525fefcbd70645a11a7b8c7",
      "transactionIndex": "0x3e",
      "blockHash": "0x8badc6a63c6bd904a3c2d1e523b8c26da1924d8d6ab191568d7791690243585c",
      "blockNumber": "0x1f08e06",
      "gasUsed": "0x1901a",
      "effectiveGasPrice": "0xf428e",
      "from": "0xfae469337b520548ca8b294379ef774b6e1b25ca",
      "to": "0x9b2b539938db144baae9f14512b8b25da40b178d",
      "contractAddress": null,
      "l1BaseFeeScalar": "0x44d",
      "l1BlobBaseFee": "0x1",
      "l1BlobBaseFeeScalar": "0xa118b",
      "l1Fee": "0x175",
      "l1GasPrice": "0x8",
      "l1GasUsed": "0x6b2"
    },
    {
      "status": "0x1",
      "cumulativeGasUsed": "0xc73558",
      "logs": [
        {
          "address": "0x213e537c2d0aa1feec5c9ee55de6a501f8270248",
          "topics": [
            "0xddf252ad1be2c89b69c2b068fc378daa952ba7f163c4a11628f55a4df523b3ef",
            "0x0000000000000000000000009b2b539938db144baae9f14512b8b25da40b178d",
            "0x00000000000000000000000090309441d63e793df9b715a45e2ec874c2ec3c2e"
          ],
          "data": "0x000000000000000000000000000000000000000000000000000000001dcd6500",
          "blockHash": "0x32a827c8a9690cf4374f7aa01ad77c59693069d27f723ae822441df97dded0b8",
          "blockNumber": "0x1f08e07",
          "blockTimestamp": "0x68f47aee",
          "transactionHash": "0x4ead605c3614421099bcf8273925cc832cf13fc753dfa7a0bf73e3297e90a2de",
          "transactionIndex": "0x49",
          "logIndex": "0x173",
          "removed": false
        },
        {
          "address": "0x9b2b539938db144baae9f14512b8b25da40b178d",
          "topics": [
            "0xd1c19fbcd4551a5edfb66d43d2e337c04837afda3482b42bdf569a8fccdae5fb",
            "0x000000000000000000000000213e537c2d0aa1feec5c9ee55de6a501f8270248",
            "0x00000000000000000000000090309441d63e793df9b715a45e2ec874c2ec3c2e"
          ],
          "data": "0x000000000000000000000000000000000000000000000000000000001dcd6500",
          "blockHash": "0x32a827c8a9690cf4374f7aa01ad77c59693069d27f723ae822441df97dded0b8",
          "blockNumber": "0x1f08e07",
          "blockTimestamp": "0x68f47aee",
          "transactionHash": "0x4ead605c3614421099bcf8273925cc832cf13fc753dfa7a0bf73e3297e90a2de",
          "transactionIndex": "0x49",
          "logIndex": "0x174",
          "removed": false
        }
      ],
      "logsBloom": "0x00000000000000000000000000000000000000000000000000000000000000000000010020000000000000000000000000000000000000000000000000002000000000000000000000000008000002000000000000000000000000001000000000000000400000000008000000000020000000000000000000000010200000000000000010000000000000000000000000000000000000000000000000000000000000200000000002000000000000000010000000000000000000000000000000000012040000000000000000000000000000000000000000000010000000000000000000000000000000080000000010000000000000000000000000000000",
      "type": "0x2",
      "transactionHash": "0x4ead605c3614421099bcf8273925cc832cf13fc753dfa7a0bf73e3297e90a2de",
      "transactionIndex": "0x49",
      "blockHash": "0x32a827c8a9690cf4374f7aa01ad77c59693069d27f723ae822441df97dded0b8",
      "blockNumber": "0x1f08e07",
      "gasUsed": "0x1901a",
      "effectiveGasPrice": "0xf428d",
      "from": "0xfae469337b520548ca8b294379ef774b6e1b25ca",
      "to": "0x9b2b539938db144baae9f14512b8b25da40b178d",
      "contractAddress": null,
      "l1BaseFeeScalar": "0x44d",
      "l1BlobBaseFee": "0x1",
      "l1BlobBaseFeeScalar": "0xa118b",
      "l1Fee": "0x50",
      "l1GasPrice": "0x8",
      "l1GasUsed": "0x6bf"
    },
    {
      "status": "0x1",
      "cumulativeGasUsed": "0x1a6fda",
      "logs": [
        {
          "address": "0x213e537c2d0aa1feec5c9ee55de6a501f8270248",
          "topics": [
            "0xddf252ad1be2c89b69c2b068fc378daa952ba7f163c4a11628f55a4df523b3ef",
            "0x0000000000000000000000009b2b539938db144baae9f14512b8b25da40b178d",
            "0x000000000000000000000000d8fffa68afde02c2fd13b305f7c53475d56a7896"
          ],
          "data": "0x000000000000000000000000000000000000000000000000000000002faf0800",
          "blockHash": "0x91638767b996f8e4bc9fb33deb1ae8c9dc9379d8b0c53c36d568a9025a68d551",
          "blockNumber": "0x1f08e08",
          "blockTimestamp": "0x68f47af0",
          "transactionHash": "0xd8f4be5fa8a1f961262bb6f2e9eb6a2adb5b3a111bfdbea3b721fb41014babd5",
          "transactionIndex": "0x1a",
          "logIndex": "0x1f",
          "removed": false
        },
        {
          "address": "0x9b2b539938db144baae9f14512b8b25da40b178d",
          "topics": [
            "0xd1c19fbcd4551a5edfb66d43d2e337c04837afda3482b42bdf569a8fccdae5fb",
            "0x000000000000000000000000213e537c2d0aa1feec5c9ee55de6a501f8270248",
            "0x000000000000000000000000d8fffa68afde02c2fd13b305f7c53475d56a7896"
          ],
          "data": "0x000000000000000000000000000000000000000000000000000000002faf0800",
          "blockHash": "0x91638767b996f8e4bc9fb33deb1ae8c9dc9379d8b0c53c36d568a9025a68d551",
          "blockNumber": "0x1f08e08",
          "blockTimestamp": "0x68f47af0",
          "transactionHash": "0xd8f4be5fa8a1f961262bb6f2e9eb6a2adb5b3a111bfdbea3b721fb41014babd5",
          "transactionIndex": "0x1a",
          "logIndex": "0x20",
          "removed": false
        }
      ],
      "logsBloom": "0x00000000000000000000000000000000000000000000000000000000000000000000010020000000000000000000010000000000000000000000000000002000000000000000000000000008000002000000000000000000000000001000000000000000400000000008000000000000000000000000000000000010200000000000000010000000000000001000000000000000000000000000000000000000200000000000000002000000000000000010000000000000000000000000000000000002040000000000000000000000000000000000000000000010000000000000000000000000000000080000000010000000000000000000000000000000",
      "type": "0x2",
      "transactionHash": "0xd8f4be5fa8a1f961262bb6f2e9eb6a2adb5b3a111bfdbea3b721fb41014babd5",
      "transactionIndex": "0x1a",
      "blockHash": "0x91638767b996f8e4bc9fb33deb1ae8c9dc9379d8b0c53c36d568a9025a68d551",
      "blockNumber": "0x1f08e08",
      "gasUsed": "0x1901a",
      "effectiveGasPrice": "0xf428d",
      "from": "0xfae469337b520548ca8b294379ef774b6e1b25ca",
      "to": "0x9b2b539938db144baae9f14512b8b25da40b178d",
      "contractAddress": null,
      "l1BaseFeeScalar": "0x44d",
      "l1BlobBaseFee": "0x1",
      "l1BlobBaseFeeScalar": "0xa118b",
      "l1Fee": "0x50",
      "l1GasPrice": "0x8",
      "l1GasUsed": "0x6bf"
    },
    {
      "status": "0x1",
      "cumulativeGasUsed": "0x6ae4af",
      "logs": [
        {
          "address": "0x213e537c2d0aa1feec5c9ee55de6a501f8270248",
          "topics": [
            "0x8c5be1e5ebec7d5bd14f71427d1e84f3dd0314c0f7b2291e5b200ac8c7c3b925",
            "0x000000000000000000000000a4cc4c627ba3ce9d072487ad1a7df3a442156655",
            "0x0000000000000000000000001be33eae451652e47d8308e64cafb46063006e7d"
          ],
          "data": "0x000000000000000000000000000000000000000000000000000000003b9aca00",
          "blockHash": "0xa11c0505d3d8f3067b5caf806c6e1a1a9edc2a4b2d8b4577b53510be01c5aba9",
          "blockNumber": "0x1f08e08",
          "blockTimestamp": "0x68f47af0",
          "transactionHash": "0xd4e2d3cbffb0f1b93ef10ddb2a9ac70085696dd18faaeb9065cdf6be904e4e52",
          "transactionIndex": "0x49",
          "logIndex": "0x7e",
          "removed": false
        }
      ],
      "logsBloom": "0x00000000000000000000000000000000000000000000000000000000000000000000000020000000000000000000000000000000000004000000000000200000000000000000000000010000000000000000000000000000000000000000000000000000400000000000000000000000000000000000000000000000000000000000000001000000000000200000000000000000000000000000000000000000020000000000000000000000000000000010000000000000000000000001000000000000000000000000000000000000000000000000000000000000000000000030000000000000000000000000000000000000000000000000000000000000",
      "type": "0x2",
      "transactionHash": "0xd4e2d3cbffb0f1b93ef10ddb2a9ac70085696dd18faaeb9065cdf6be904e4e52",
      "transactionIndex": "0x49",
      "blockHash": "0xa11c0505d3d8f3067b5caf806c6e1a1a9edc2a4b2d8b4577b53510be01c5aba9",
      "blockNumber": "0x1f08e08",
      "gasUsed": "0xda42",
      "effectiveGasPrice": "0xf428d",
      "from": "0xa4cc4c627ba3ce9d072487ad1a7df3a442156655",
      "to": "0x213e537c2d0aa1feec5c9ee55de6a501f8270248",
      "contractAddress": null,
      "l1BaseFeeScalar": "0x44d",
      "l1BlobBaseFee": "0x1",
      "l1BlobBaseFeeScalar": "0xa118b",
      "l1Fee": "0x50",
      "l1GasPrice": "0x8",
      "l1GasUsed": "0x640"
    },
    {
      "status": "0x1",
      "cumulativeGasUsed": "0x31a024",
      "logs": [
        {
          "address": "0x213e537c2d0aa1feec5c9ee55de6a501f8270248",
          "topics": [
            "0xddf252ad1be2c89b69c2b068fc378daa952ba7f163c4a11628f55a4df523b3ef",
            "0x000000000000000000000000a4cc4c627ba3ce9d072487ad1a7df3a442156655",
            "0x0000000000000000000000001be33eae451652e47d8308e64cafb46063006e7d"
          ],
          "data": "0x000000000000000000000000000000000000000000000000000000003b9aca00",
          "blockHash": "0xaec9dbcdadd360ccd0abac1a94376ae8da7846d780b1cf28c5225d8327b4fc2d",
          "blockNumber": "0x1f08e09",
          "blockTimestamp": "0x68f47af2",
          "transactionHash": "0xd72e9320952ef8874a911f562cc80e64e6b591b48d19fa0fdae8a4087224904a",
          "transactionIndex": "0x25",
          "logIndex": "0x58",
          "removed": false
        },
        {
          "address": "0x213e537c2d0aa1feec5c9ee55de6a501f8270248",
          "topics": [
            "0x8c5be1e5ebec7d5bd14f71427d1e84f3dd0314c0f7b2291e5b200ac8c7c3b925",
            "0x000000000000000000000000a4cc4c627ba3ce9d072487ad1a7df3a442156655",
            "0x0000000000000000000000001be33eae451652e47d8308e64cafb46063006e7d"
          ],
          "data": "0x0000000000000000000000000000000000000000000000000000000000000000",
          "blockHash": "0xaec9dbcdadd360ccd0abac1a94376ae8da7846d780b1cf28c5225d8327b4fc2d",
          "blockNumber": "0x1f08e09",
          "blockTimestamp": "0x68f47af2",
          "transactionHash": "0xd72e9320952ef8874a911f562cc80e64e6b591b48d19fa0fdae8a4087224904a",
          "transactionIndex": "0x25",
          "logIndex": "0x59",
          "removed": false
        },
        {
          "address": "0x1be33eae451652e47d8308e64cafb46063006e7d",
          "topics": [
            "0xa046f1032f8345a9f875e8701f69067c6fa384de432e427c02ca0deddb704991",
            "0x34c12e9f18f8c2ffc43f67784f7f92aa39dfbe474244d3c68bb46fc26be43152",
            "0x000000000000000000000000a4cc4c627ba3ce9d072487ad1a7df3a442156655",
            "0x00000000000000000000000082bfdbff67eeab47f8af9032df7102566b7b06ee"
          ],
          "data": "0x000000000000000000000000000000000000000000000000000000003b9aca0000000000000000000000000000000000000000000000000000000000000000460000000000000000000000000000000000000000000000000000000000000001000000000000000000000000213e537c2d0aa1feec5c9ee55de6a501f82702480000000000000000000000000000000000000000000000000000000000000001",
          "blockHash": "0xaec9dbcdadd360ccd0abac1a94376ae8da7846d780b1cf28c5225d8327b4fc2d",
          "blockNumber": "0x1f08e09",
          "blockTimestamp": "0x68f47af2",
          "transactionHash": "0xd72e9320952ef8874a911f562cc80e64e6b591b48d19fa0fdae8a4087224904a",
          "transactionIndex": "0x25",
          "logIndex": "0x5a",
          "removed": false
        }
      ],
      "logsBloom": "0x00040000000000000000000000000000000000000000000000000000000000000020000020000000000000000000000000000000000004000000000000200000000000000000000000010108000000000000000000000004000000000000000000000000400000000000000000000010000000000080000000000010000000000000000001000000000000200000000000000000000000000000000000000000020000000000000000000000000000008010000000000000000000001001000000000002000000000000220000000010000000000000000000000000000000000030000000000000000000000000000000000000000000000000000000000002",
      "type": "0x2",
      "transactionHash": "0xd72e9320952ef8874a911f562cc80e64e6b591b48d19fa0fdae8a4087224904a",
      "transactionIndex": "0x25",
      "blockHash": "0xaec9dbcdadd360ccd0abac1a94376ae8da7846d780b1cf28c5225d8327b4fc2d",
      "blockNumber": "0x1f08e09",
      "gasUsed": "0x40b10",
      "effectiveGasPrice": "0xf428d",
      "from": "0xa4cc4c627ba3ce9d072487ad1a7df3a442156655",
      "to": "0x1be33eae451652e47d8308e64cafb46063006e7d",
      "contractAddress": null,
      "l1BaseFeeScalar": "0x44d",
      "l1BlobBaseFee": "0x1",
      "l1BlobBaseFeeScalar": "0xa118b",
      "l1Fee": "0x50",
      "l1GasPrice": "0x8",
      "l1GasUsed": "0x8d7"
    },
    {
      "status": "0x1",
      "cumulativeGasUsed": "0x6c07c6",
      "logs": [
        {
          "address": "0x1be33eae451652e47d8308e64cafb46063006e7d",
          "topics": [
            "0xae0a4b391ad677d5b7a190fe7505d676e65a6f517cd0b2035b7b8badd87cb54f",
            "0x34c12e9f18f8c2ffc43f67784f7f92aa39dfbe474244d3c68bb46fc26be43152"
          ],
          "data": "0x0000000000000000000000000000000000000000000000000000000000000020000000000000000000000000000000000000000000000000000000000000000c545241434b494e472d58595a0000000000000000000000000000000000000000",
          "blockHash": "0x0774f7d49de88166be6d9ce028d16f3d27507047aee382aa4b111ec15662e263",
          "blockNumber": "0x1f08e09",
          "blockTimestamp": "0x68f47af2",
          "transactionHash": "0x4fb55328418fa181bce22f4b977ec27918b345afc5dc6cc829e26dd431a7481a",
          "transactionIndex": "0x57",
          "logIndex": "0xd2",
          "removed": false
        }
      ],
      "logsBloom": "0x00000000000000000000000000000000000000000000000000000000000000000020000000000000000000000000000000000000000000000000000000000000000000000000000000000100000000000000000000000000000000000000000000000000000000000000000000000000000000000000000000000000000000000000000000000000000000000000000002000000000000000000000001000000000000000000000000000000000000008000000000000000000000000000000000000000000000000000020000000010000000000000000000000000000000800000000000000000000000000000000000000000000000000000000000000002",
      "type": "0x2",
      "transactionHash": "0x4fb55328418fa181bce22f4b977ec27918b345afc5dc6cc829e26dd431a7481a",
      "transactionIndex": "0x57",
      "blockHash": "0x0774f7d49de88166be6d9ce028d16f3d27507047aee382aa4b111ec15662e263",
      "blockNumber": "0x1f08e09",
      "gasUsed": "0xae3d",
      "effectiveGasPrice": "0xf428d",
      "from": "0x82bfdbff67eeab47f8af9032df7102566b7b06ee",
      "to": "0x1be33eae451652e47d8308e64cafb46063006e7d",
      "contractAddress": null,
      "l1BaseFeeScalar": "0x44d",
      "l1BlobBaseFee": "0x1",
      "l1BlobBaseFeeScalar": "0xa118b",
      "l1Fee": "0x50",
      "l1GasPrice": "0x8",
      "l1GasUsed": "0x6da"
    },
    {
      "status": "0x1",
      "cumulativeGasUsed": "0xbf103d",
      "logs": [
        {
          "address": "0x1be33eae451652e47d8308e64cafb46063006e7d",
          "topics": [
            "0x29a8d01f60d4f22a97a7b9f8db36295ab34474e03219908d2272908eefa9ed1d",
            "0x34c12e9f18f8c2ffc43f67784f7f92aa39dfbe474244d3c68bb46fc26be43152"
          ],
          "data": "0x000000000000000000000000000000000000000000000000000000000000396000000000000000000000000000000000000000000000000000000000000f428d",
          "blockHash": "0xdb10b0239546527781cb6068c0c481ed77e9faaaf3df21f8f04e0145efaf7471",
          "blockNumber": "0x1f08e0a",
          "blockTimestamp": "0x68f47af4",
          "transactionHash": "0xa764b65b091768acfa412e2a72074c1b891536c6cbefda17b61b7a34d5835b38",
          "transactionIndex": "0x23",
          "logIndex": "0x108",
          "removed": false
        },
        {
          "address": "0x213e537c2d0aa1feec5c9ee55de6a501f8270248",
          "topics": [
            "0xddf252ad1be2c89b69c2b068fc378daa952ba7f163c4a11628f55a4df523b3ef",
            "0x0000000000000000000000001be33eae451652e47d8308e64cafb46063006e7d",
            "0x0000000000000000000000009b2b539938db144baae9f14512b8b25da40b178d"
          ],
          "data": "0x00000000000000000000000000000000000000000000000000000000006acfc0",
          "blockHash": "0xdb10b0239546527781cb6068c0c481ed77e9faaaf3df21f8f04e0145efaf7471",
          "blockNumber": "0x1f08e0a",
          "blockTimestamp": "0x68f47af4",
          "transactionHash": "0xa764b65b091768acfa412e2a72074c1b891536c6cbefda17b61b7a34d5835b38",
          "transactionIndex": "0x23",
          "logIndex": "0x109",
          "removed": false
        },
        {
          "address": "0x9b2b539938db144baae9f14512b8b25da40b178d",
          "topics": [
            "0x5f6c237773b6c10e71c628df6d9961cf3b38251968c382d9870f7e0c43216d53"
          ],
          "data": "0x00000000000000000000000000000000000000000000000000000000000000000000000000000000000000000000000000000000000000000000000000155cc0",
          "blockHash": "0xdb10b0239546527781cb6068c0c481ed77e9faaaf3df21f8f04e0145efaf7471",
          "blockNumber": "0x1f08e0a",
          "blockTimestamp": "0x68f47af4",
          "transactionHash": "0xa764b65b091768acfa412e2a72074c1b891536c6cbefda17b61b7a34d5835b38",
          "transactionIndex": "0x23",
          "logIndex": "0x10a",
          "removed": false
        },
        {
          "address": "0x213e537c2d0aa1feec5c9ee55de6a501f8270248",
          "topics": [
            "0xddf252ad1be2c89b69c2b068fc378daa952ba7f163c4a11628f55a4df523b3ef",
            "0x0000000000000000000000009b2b539938db144baae9f14512b8b25da40b178d",
            "0x0000000000000000000000000000000000000000000000000000000000000000"
          ],
          "data": "0x00000000000000000000000000000000000000000000000000000000003567e0",
          "blockHash": "0xdb10b0239546527781cb6068c0c481ed77e9faaaf3df21f8f04e0145efaf7471",
          "blockNumber": "0x1f08e0a",
          "blockTimestamp": "0x68f47af4",
          "transactionHash": "0xa764b65b091768acfa412e2a72074c1b891536c6cbefda17b61b7a34d5835b38",
          "transactionIndex": "0x23",
          "logIndex": "0x10b",
          "removed": false
        },
        {
          "address": "0x213e537c2d0aa1feec5c9ee55de6a501f8270248",
          "topics": [
            "0x25ee261d057ce810a74a4894cb04f8493ffe11370dc8a142be3019997a9e1c4e",
            "0x0000000000000000000000009b2b539938db144baae9f14512b8b25da40b178d"
          ],
          "data": "0x00000000000000000000000000000000000000000000000000000000003567e0",
          "blockHash": "0xdb10b0239546527781cb6068c0c481ed77e9faaaf3df21f8f04e0145efaf7471",
          "blockNumber": "0x1f08e0a",
          "blockTimestamp": "0x68f47af4",
          "transactionHash": "0xa764b65b091768acfa412e2a72074c1b891536c6cbefda17b61b7a34d5835b38",
          "transactionIndex": "0x23",
          "logIndex": "0x10c",
          "removed": false
        },
        {
          "address": "0x9b2b539938db144baae9f14512b8b25da40b178d",
          "topics": [
            "0xa5f8f037b2f8be0e630cbe4d6da5734b24dc18036bfe45984006f49ef8d30695"
          ],
          "data": "0x00000000000000000000000000000000000000000000000000000000003567e00000000000000000000000000000000000000000000000000000000000155cc00000000000000000000000000000000000000000000000000000000000200b20",
          "blockHash": "0xdb10b0239546527781cb6068c0c481ed77e9faaaf3df21f8f04e0145efaf7471",
          "blockNumber": "0x1f08e0a",
          "blockTimestamp": "0x68f47af4",
          "transactionHash": "0xa764b65b091768acfa412e2a72074c1b891536c6cbefda17b61b7a34d5835b38",
          "transactionIndex": "0x23",
          "logIndex": "0x10d",
          "removed": false
        },
        {
          "address": "0x213e537c2d0aa1feec5c9ee55de6a501f8270248",
          "topics": [
            "0xddf252ad1be2c89b69c2b068fc378daa952ba7f163c4a11628f55a4df523b3ef",
            "0x0000000000000000000000001be33eae451652e47d8308e64cafb46063006e7d",
            "0x00000000000000000000000082bfdbff67eeab47f8af9032df7102566b7b06ee"
          ],
          "data": "0x000000000000000000000000000000000000000000000000000000003b2ffa40",
          "blockHash": "0xdb10b0239546527781cb6068c0c481ed77e9faaaf3df21f8f04e0145efaf7471",
          "blockNumber": "0x1f08e0a",
          "blockTimestamp": "0x68f47af4",
          "transactionHash": "0xa764b65b091768acfa412e2a72074c1b891536c6cbefda17b61b7a34d5835b38",
          "transactionIndex": "0x23",
          "logIndex": "0x10e",
          "removed": false
        },
        {
          "address": "0x1be33eae451652e47d8308e64cafb46063006e7d",
          "topics": [
            "0x6666bc6d646792b8737de0fc6fe157dcedcfbd7946c6f3bd0ec4dd2a5a0aca7c",
            "0x34c12e9f18f8c2ffc43f67784f7f92aa39dfbe474244d3c68bb46fc26be43152"
          ],
          "data": "0x00000000000000000000000000000000000000000000000000000000006acfc000000000000000000000000000000000000000000000000000000000000000000000000000000000000000000000000000000000000000000000000000000000000000000000000000000000000000000000000000000000000000000000000000000000000000000000000000000000000000000000000000000000006acfc0",
          "blockHash": "0xdb10b0239546527781cb6068c0c481ed77e9faaaf3df21f8f04e0145efaf7471",
          "blockNumber": "0x1f08e0a",
          "blockTimestamp": "0x68f47af4",
          "transactionHash": "0xa764b65b091768acfa412e2a72074c1b891536c6cbefda17b61b7a34d5835b38",
          "transactionIndex": "0x23",
          "logIndex": "0x10f",
          "removed": false
        },
        {
          "address": "0xe80b498652303ff7eb113d70861f677df6029ea6",
          "topics": [
            "0x81738e483c19ed98fc5f5101f75a9b8498e861c01ed0e7544f8ef4b94e57d88d",
            "0x000000000000000000000000a4cc4c627ba3ce9d072487ad1a7df3a442156655"
          ],
          "data": "0x000000000000000000000000000000000000000000000000000000000000003200000000000000000000000000000000000000000000000000000000000000320000000000000000000000000000000000000000000000000000000000000001",
          "blockHash": "0xdb10b0239546527781cb6068c0c481ed77e9faaaf3df21f8f04e0145efaf7471",
          "blockNumber": "0x1f08e0a",
          "blockTimestamp": "0x68f47af4",
          "transactionHash": "0xa764b65b091768acfa412e2a72074c1b891536c6cbefda17b61b7a34d5835b38",
          "transactionIndex": "0x23",
          "logIndex": "0x110",
          "removed": false
        },
        {
          "address": "0xe80b498652303ff7eb113d70861f677df6029ea6",
          "topics": [
            "0x81738e483c19ed98fc5f5101f75a9b8498e861c01ed0e7544f8ef4b94e57d88d",
            "0x00000000000000000000000082bfdbff67eeab47f8af9032df7102566b7b06ee"
          ],
          "data": "0x000000000000000000000000000000000000000000000000000000000000003200000000000000000000000000000000000000000000000000000000000000320000000000000000000000000000000000000000000000000000000000000001",
          "blockHash": "0xdb10b0239546527781cb6068c0c481ed77e9faaaf3df21f8f04e0145efaf7471",
          "blockNumber": "0x1f08e0a",
          "blockTimestamp": "0x68f47af4",
          "transactionHash": "0xa764b65b091768acfa412e2a72074c1b891536c6cbefda17b61b7a34d5835b38",
          "transactionIndex": "0x23",
          "logIndex": "0x111",
          "removed": false
        },
        {
          "address": "0x1be33eae451652e47d8308e64cafb46063006e7d",
          "topics": [
            "0x06c6039daefee2ed35dd5334ebc133e3d25d0fb30487842c76379d05d6fad9a1",
            "0x34c12e9f18f8c2ffc43f67784f7f92aa39dfbe474244d3c68bb46fc26be43152"
          ],
          "data": "0x",
          "blockHash": "0xdb10b0239546527781cb6068c0c481ed77e9faaaf3df21f8f04e0145efaf7471",
          "blockNumber": "0x1f08e0a",
          "blockTimestamp": "0x68f47af4",
          "transactionHash": "0xa764b65b091768acfa412e2a72074c1b891536c6cbefda17b61b7a34d5835b38",
          "transactionIndex": "0x23",
          "logIndex": "0x112",
          "removed": false
        }
      ],
      "logsBloom": "0x1004000000000000000001011000000000080000000000000000000000000000002001002000000000004000000000200000000000000c000000000000002000000000000000000080010128000000000000000010002004000010000000000000000000420000000000000000000810000000000000001020000010200000000000000011000000000000200400000000000000040000000000000000000000000000000000000000000000000000008010400000000000000000000001000200000002040000000000020000000010000000000000000000000000000020000020000000000000000000000000000010000008040000000000000000010002",
      "type": "0x2",
      "transactionHash": "0xa764b65b091768acfa412e2a72074c1b891536c6cbefda17b61b7a34d5835b38",
      "transactionIndex": "0x23",
      "blockHash": "0xdb10b0239546527781cb6068c0c481ed77e9faaaf3df21f8f04e0145efaf7471",
      "blockNumber": "0x1f08e0a",
      "gasUsed": "0x5202f",
      "effectiveGasPrice": "0xf428d",
      "from": "0xa4cc4c627ba3ce9d072487ad1a7df3a442156655",
      "to": "0x1be33eae451652e47d8308e64cafb46063006e7d",
      "contractAddress": null,
      "l1BaseFeeScalar": "0x44d",
      "l1BlobBaseFee": "0x1",
      "l1BlobBaseFeeScalar": "0xa118b",
      "l1Fee": "0x50",
      "l1GasPrice": "0x8",
      "l1GasUsed": "0x640"
    },
    {
      "status": "0x1",
      "cumulativeGasUsed": "0x11931ef",
      "logs": [
        {
          "address": "0x213e537c2d0aa1feec5c9ee55de6a501f8270248",
          "topics": [
            "0x8c5be1e5ebec7d5bd14f71427d1e84f3dd0314c0f7b2291e5b200ac8c7c3b925",
            "0x000000000000000000000000b2d7b5cb601c4b3bfe5c5996ee3a3cac6ed0b324",
            "0x0000000000000000000000003cd3c4f3619865dd9181bafe7d431102fc8d008a"
          ],
          "data": "0x0000000000000000000000000000000000000000000000000000000059682f00",
          "blockHash": "0xf283180b3696a19c2d3edafb78421cdf206d664ffcc5163727a5aaf76fb84e47",
          "blockNumber": "0x1f08e0a",
          "blockTimestamp": "0x68f47af4",
          "transactionHash": "0x14d727be6ace33df43274d69c2997cce1ccd202515ed25f5c2dd42acc077f978",
          "transactionIndex": "0x56",
          "logIndex": "0x1a3",
          "removed": false
        }
      ],
      "logsBloom": "0x00000000000000000000000000000000000000000000000000000000000000010000000020000000000000000000000000000000000000000000000000200000000000000002000000000000000000000000000000000000000000002000000000000000400000000000000000000000000000000000000000000000008000000000000000000000000000000000000000000000000000000000000000800000020000000000000000000000000000000010000000000000000000000000000000000000000000000000000000000000000000000000000000000000000000000010000000000000000000000000000000000000000000000000000000000000",
      "type": "0x2",
      "transactionHash": "0x14d727be6ace33df43274d69c2997cce1ccd202515ed25f5c2dd42acc077f978",
      "transactionIndex": "0x56",
      "blockHash": "0xf283180b3696a19c2d3edafb78421cdf206d664ffcc5163727a5aaf76fb84e47",
      "blockNumber": "0x1f08e0a",
      "gasUsed": "0xda42",
      "effectiveGasPrice": "0xf428d",
      "from": "0xb2d7b5cb601c4b3bfe5c5996ee3a3cac6ed0b324",
      "to": "0x213e537c2d0aa1feec5c9ee55de6a501f8270248",
      "contractAddress": null,
      "l1BaseFeeScalar": "0x44d",
      "l1BlobBaseFee": "0x1",
      "l1BlobBaseFeeScalar": "0xa118b",
      "l1Fee": "0x50",
      "l1GasPrice": "0x8",
      "l1GasUsed": "0x640"
    },
    {
      "status": "0x1",
      "cumulativeGasUsed": "0xbe5055",
      "logs": [
        {
          "address": "0x3cd3c4f3619865dd9181bafe7d431102fc8d008a",
          "topics": [
            "0x9feb76ac34bc551d82631bf5bf7800096e2fe8f402cdab1b05fe45f3c0d69c55",
            "0x000000000000000000000000b2d7b5cb601c4b3bfe5c5996ee3a3cac6ed0b324"
          ],
          "data": "0x0000000000000000000000000000000000000000000000000000000000001f40",
          "blockHash": "0xb09ccc75691ccd9c359b4aefb69bb81d0c9c08552aaf8f15122b410e707f86bd",
          "blockNumber": "0x1f08e0b",
          "blockTimestamp": "0x68f47af6",
          "transactionHash": "0x9213bbec87b60f38dccf698c0ec9e8eb17b5a6e2f989f20d5c45f6ed64dea901",
          "transactionIndex": "0x44",
          "logIndex": "0x15b",
          "removed": false
        },
        {
          "address": "0x213e537c2d0aa1feec5c9ee55de6a501f8270248",
          "topics": [
            "0xddf252ad1be2c89b69c2b068fc378daa952ba7f163c4a11628f55a4df523b3ef",
            "0x000000000000000000000000b2d7b5cb601c4b3bfe5c5996ee3a3cac6ed0b324",
            "0x0000000000000000000000003cd3c4f3619865dd9181bafe7d431102fc8d008a"
          ],
          "data": "0x0000000000000000000000000000000000000000000000000000000059682f00",
          "blockHash": "0xb09ccc75691ccd9c359b4aefb69bb81d0c9c08552aaf8f15122b410e707f86bd",
          "blockNumber": "0x1f08e0b",
          "blockTimestamp": "0x68f47af6",
          "transactionHash": "0x9213bbec87b60f38dccf698c0ec9e8eb17b5a6e2f989f20d5c45f6ed64dea901",
          "transactionIndex": "0x44",
          "logIndex": "0x15c",
          "removed": false
        },
        {
          "address": "0x213e537c2d0aa1feec5c9ee55de6a501f8270248",
          "topics": [
            "0x8c5be1e5ebec7d5bd14f71427d1e84f3dd0314c0f7b2291e5b200ac8c7c3b925",
            "0x000000000000000000000000b2d7b5cb601c4b3bfe5c5996ee3a3cac6ed0b324",
            "0x0000000000000000000000003cd3c4f3619865dd9181bafe7d431102fc8d008a"
          ],
          "data": "0x0000000000000000000000000000000000000000000000000000000000000000",
          "blockHash": "0xb09ccc75691ccd9c359b4aefb69bb81d0c9c08552aaf8f15122b410e707f86bd",
          "blockNumber": "0x1f08e0b",
          "blockTimestamp": "0x68f47af6",
          "transactionHash": "0x9213bbec87b60f38dccf698c0ec9e8eb17b5a6e2f989f20d5c45f6ed64dea901",
          "transactionIndex": "0x44",
          "logIndex": "0x15d",
          "removed": false
        },
        {
          "address": "0x3cd3c4f3619865dd9181bafe7d431102fc8d008a",
          "topics": [
            "0xebedb8b3c678666e7f36970bc8f57abf6d8fa2e828c0da91ea5b75bf68ed101a",
            "0x000000000000000000000000b2d7b5cb601c4b3bfe5c5996ee3a3cac6ed0b324"
          ],
          "data": "0x0000000000000000000000000000000000000000000000000000000059682f00",
          "blockHash": "0xb09ccc75691ccd9c359b4aefb69bb81d0c9c08552aaf8f15122b410e707f86bd",
          "blockNumber": "0x1f08e0b",
          "blockTimestamp": "0x68f47af6",
          "transactionHash": "0x9213bbec87b60f38dccf698c0ec9e8eb17b5a6e2f989f20d5c45f6ed64dea901",
          "transactionIndex": "0x44",
          "logIndex": "0x15e",
          "removed": false
        }
      ],
      "logsBloom": "0x00000000000080000000000000000000000000000000000000020000000000010000000020000000000000000000100000000000000000000000000000200000000002000002000000000008000000000000000000000000000000002000000000000000400000000000000000000000008000000200000400000010008000000000000000000000000000000000000000000000000000000000000000800000020000000000000000000000000000000010000000000000000000000000000000000002000000000000000000000020000000000000000000000000010000000010000000000000000000000000000000000000000000000000000000000000",
      "type": "0x2",
      "transactionHash": "0x9213bbec87b60f38dccf698c0ec9e8eb17b5a6e2f989f20d5c45f6ed64dea901",
      "transactionIndex": "0x44",
      "blockHash": "0xb09ccc75691ccd9c359b4aefb69bb81d0c9c08552aaf8f15122b410e707f86bd",
      "blockNumber": "0x1f08e0b",
      "gasUsed": "0x2c797",
      "effectiveGasPrice": "0xf428e",
      "from": "0xb2d7b5cb601c4b3bfe5c5996ee3a3cac6ed0b324",
      "to": "0x3cd3c4f3619865dd9181bafe7d431102fc8d008a",
      "contractAddress": null,
      "l1BaseFeeScalar": "0x44d",
      "l1BlobBaseFee": "0x1",
      "l1BlobBaseFeeScalar": "0xa118b",
      "l1Fee": "0x50",
      "l1GasPrice": "0x8",
      "l1GasUsed": "0x640"
    },
    {
      "status": "0x1",
      "cumulativeGasUsed": "0x1f4436",
      "logs": [
        {
          "address": "0x213e537c2d0aa1feec5c9ee55de6a501f8270248",
          "topics": [
            "0xddf252ad1be2c89b69c2b068fc378daa952ba7f163c4a11628f55a4df523b3ef",
            "0x0000000000000000000000003cd3c4f3619865dd9181bafe7d431102fc8d008a",
            "0x000000000000000000000000b2d7b5cb601c4b3bfe5c5996ee3a3cac6ed0b324"
          ],
          "data": "0x0000000000000000000000000000000000000000000000000000000059682f00",
          "blockHash": "0xa0786eaf22e33b2eacec059b2adb668bc324d9655c62d35d1d74270901936191",
          "blockNumber": "0x1f08e0c",
          "blockTimestamp": "0x68f47af8",
          "transactionHash": "0x96378b6dd88ca27292bb8fccfcb53d01c59254adb7bba61e26000d20e847f459",
          "transactionIndex": "0x25",
          "logIndex": "0x24",
          "removed": false
        },
        {
          "address": "0x3cd3c4f3619865dd9181bafe7d431102fc8d008a",
          "topics": [
            "0x5fafa99d0643513820be26656b45130b01e1c03062e1266bf36f88cbd3bd9695",
            "0x000000000000000000000000b2d7b5cb601c4b3bfe5c5996ee3a3cac6ed0b324"
          ],
          "data": "0x0000000000000000000000000000000000000000000000000000000059682f00",
          "blockHash": "0xa0786eaf22e33b2eacec059b2adb668bc324d9655c62d35d1d74270901936191",
          "blockNumber": "0x1f08e0c",
          "blockTimestamp": "0x68f47af8",
          "transactionHash": "0x96378b6dd88ca27292bb8fccfcb53d01c59254adb7bba61e26000d20e847f459",
          "transactionIndex": "0x25",
          "logIndex": "0x25",
          "removed": false
        }
      ],
      "logsBloom": "0x00000000000000000000000000000000000000000000000000020000000000010000000020000000000000000000100000000000000000000000000000002000000000000002000000000008000000000000000000000000000000002000000000000000400000000000000000000000000000000000000000000010008000000000000000000000000000000000000000000000000000000000000000800000020000000000000000000000000000000010000000000000000000000000000000000002000000000000000000000020000000000000000000000000000000000000800000000010000000000000000000000000000000000000000000000000",
      "type": "0x2",
      "transactionHash": "0x96378b6dd88ca27292bb8fccfcb53d01c59254adb7bba61e26000d20e847f459",
      "transactionIndex": "0x25",
      "blockHash": "0xa0786eaf22e33b2eacec059b2adb668bc324d9655c62d35d1d74270901936191",
      "blockNumber": "0x1f08e0c",
      "gasUsed": "0x12a4f",
      "effectiveGasPrice": "0xf428e",
      "from": "0xb2d7b5cb601c4b3bfe5c5996ee3a3cac6ed0b324",
      "to": "0x3cd3c4f3619865dd9181bafe7d431102fc8d008a",
      "contractAddress": null,
      "l1BaseFeeScalar": "0x44d",
      "l1BlobBaseFee": "0x1",
      "l1BlobBaseFeeScalar": "0xa118b",
      "l1Fee": "0x53",
      "l1GasPrice": "0x8",
      "l1GasUsed": "0x640"
    },
    {
      "status": "0x1",
      "cumulativeGasUsed": "0x41bb5d",
      "logs": [
        {
          "address": "0xe1e3e2bed6312d5fb529d05eed8976f8b6ce6bb7",
          "topics": [
            "0x0559884fd3a460db3073b7fc896cc77986f16e378210ded43186175bf646fc5f",
            "0x0000000000000000000000000000000000000000000000001e87f85809dc0000",
            "0x0000000000000000000000000000000000000000000000000000000000000000"
          ],
          "data": "0x0000000000000000000000000000000000000000000000000000000068f47af8",
          "blockHash": "0xbaf85a5a8fd5bcf394940d293df38d98bae9c3d3fb4c9c2c9a24037b03e3d625",
          "blockNumber": "0x1f08e0c",
          "blockTimestamp": "0x68f47af8",
          "transactionHash": "0x66e3bc475ef40b82f405c8384035ffbab36e9332a400f69e5379d0b5e3bb86e2",
          "transactionIndex": "0x52",
          "logIndex": "0x58",
          "removed": false
        }
      ],
      "logsBloom": "0x00000000000000010000000000000000000000000000000000000000000000000000080000000000000000000000010000000000000200000000000000000000000000000000000000000000000000000000000000000000000000000000000000000000020000000000000000000800000000000000000000000000000000000000000000000000000000000040000000000480000000000000100000000000000000000000000000000000000000000000000000000000000000000000000000000000000000000000000000000000000000000000000000000000000020000000000000000000000080000000000000000000000000000000000000000000",
      "type": "0x2",
      "transactionHash": "0x66e3bc475ef40b82f405c8384035ffbab36e9332a400f69e5379d0b5e3bb86e2",
      "transactionIndex": "0x52",
      "blockHash": "0xbaf85a5a8fd5bcf394940d293df38d98bae9c3d3fb4c9c2c9a24037b03e3d625",
      "blockNumber": "0x1f08e0c",
      "gasUsed": "0x81d7",
      "effectiveGasPrice": "0xf428e",
      "from": "0xfae469337b520548ca8b294379ef774b6e1b25ca",
      "to": "0xe1e3e2bed6312d5fb529d05eed8976f8b6ce6bb7",
      "contractAddress": null,
      "l1BaseFeeScalar": "0x44d",
      "l1BlobBaseFee": "0x1",
      "l1BlobBaseFeeScalar": "0xa118b",
      "l1Fee": "0x53",
      "l1GasPrice": "0x8",
      "l1GasUsed": "0x640"
    },
    {
      "status": "0x1",
      "cumulativeGasUsed": "0xcd9464",
      "logs": [
        {
          "address": "0x719aec96d5cd984e66b6c8f767d0e261e248a0ea",
          "topics": [
            "0x5fde4e34f962081b2e5584eaf87d5917b4c6cb5dd97b72333096087b34913a9f",
            "0x0000000000000000000000000000000000000000000000000000000068f47af8",
            "0x0000000000000000000000000000000000000000000000000000000068f47afa"
          ],
          "data": "0x0000000000000000000000000000000000000000000000001e87f85809dc0000",
          "blockHash": "0xc81ed94b3476e9fce356f5b077f9f3850382578f7d3a9981e29e81b1528c4255",
          "blockNumber": "0x1f08e0d",
          "blockTimestamp": "0x68f47afa",
          "transactionHash": "0xb47a0e225e44bd88bc9becd5836621721fe662089af09cf15a59809c3b421986",
          "transactionIndex": "0x23",
          "logIndex": "0x10c",
          "removed": false
        }
      ],
      "logsBloom": "0x00000000000000000000000000000000000000000000000000800000000000000000000000000000000000000000000000000000400000000000000000000000000000000000010200000000000000002100000000000000000000000000000000000000000000000000000000000000000000000001000000000000000000000000000000000000000800000000000000000000000000000000000000000000000000000000000000000040000000000000000000000000000000000000000010000000000000000000000000000000000000000000200000000000000000000000000000000000000000000000000000000000000000000000008000000000",
      "type": "0x2",
      "transactionHash": "0xb47a0e225e44bd88bc9becd5836621721fe662089af09cf15a59809c3b421986",
      "transactionIndex": "0x23",
      "blockHash": "0xc81ed94b3476e9fce356f5b077f9f3850382578f7d3a9981e29e81b1528c4255",
      "blockNumber": "0x1f08e0d",
      "gasUsed": "0x16a05",
      "effectiveGasPrice": "0xf428d",
      "from": "0xfae469337b520548ca8b294379ef774b6e1b25ca",
      "to": "0x719aec96d5cd984e66b6c8f767d0e261e248a0ea",
      "contractAddress": null,
      "l1BaseFeeScalar": "0x44d",
      "l1BlobBaseFee": "0x1",
      "l1BlobBaseFeeScalar": "0xa118b",
      "l1Fee": "0x50",
      "l1GasPrice": "0x8",
      "l1GasUsed": "0x640"
    },
    {
      "status": "0x1",
      "cumulativeGasUsed": "0x1191974",
      "logs": [
        {
          "address": "0x213e537c2d0aa1feec5c9ee55de6a501f8270248",
          "topics": [
            "0xddf252ad1be2c89b69c2b068fc378daa952ba7f163c4a11628f55a4df523b3ef",
            "0x00000000000000000000000090309441d63e793df9b715a45e2ec874c2ec3c2e",
            "0x000000000000000000000000a4cc4c627ba3ce9d072487ad1a7df3a442156655"
          ],
          "data": "0x0000000000000000000000000000000000000000000000000000000005f5e100",
          "blockHash": "0x5d788522ce2d75117e15bd8b6c64ebed5b7f0351d97eeab7055ec3b65803b137",
          "blockNumber": "0x1f08e0d",
          "blockTimestamp": "0x68f47afa",
          "transactionHash": "0xde557a1db4052c7b4e5b388207a2acda2ca4fcf08b8e2e73eada001f13d1d60e",
          "transactionIndex": "0x54",
          "logIndex": "0x170",
          "removed": false
        },
        {
          "address": "0x90309441d63e793df9b715a45e2ec874c2ec3c2e",
          "topics": [
            "0x987d620f307ff6b94d58743cb7a7509f24071586a77759b77c2d4e29f75a2f9a",
            "0x000000000000000000000000a4cc4c627ba3ce9d072487ad1a7df3a442156655"
          ],
          "data": "0x0000000000000000000000000000000000000000000000000000000005f5e1000000000000000000000000000000000000000000000000000000000000000000",
          "blockHash": "0x5d788522ce2d75117e15bd8b6c64ebed5b7f0351d97eeab7055ec3b65803b137",
          "blockNumber": "0x1f08e0d",
          "blockTimestamp": "0x68f47afa",
          "transactionHash": "0xde557a1db4052c7b4e5b388207a2acda2ca4fcf08b8e2e73eada001f13d1d60e",
          "transactionIndex": "0x54",
          "logIndex": "0x171",
          "removed": false
        }
      ],
      "logsBloom": "0x00000000000000000000000000000000000000000000000000000000000000000000000020000000000000000000000000000000040004000000000000000000000000000000000000010008000000000000000000000000000000020000000000000000400000000000000000000020000000000000000000000010000000000000000000000000000000200000000000000000000000000000000000000000000000200000000000000000200000000010000000000000000000000000000000000012000000080000000000000000000000000000000800000004000000000000000000000000000000000000000000000000000000000000000000000000",
      "type": "0x2",
      "transactionHash": "0xde557a1db4052c7b4e5b388207a2acda2ca4fcf08b8e2e73eada001f13d1d60e",
      "transactionIndex": "0x54",
      "blockHash": "0x5d788522ce2d75117e15bd8b6c64ebed5b7f0351d97eeab7055ec3b65803b137",
      "blockNumber": "0x1f08e0d",
      "gasUsed": "0x24558",
      "effectiveGasPrice": "0xf428d",
      "from": "0xa4cc4c627ba3ce9d072487ad1a7df3a442156655",
      "to": "0x90309441d63e793df9b715a45e2ec874c2ec3c2e",
      "contractAddress": null,
      "l1BaseFeeScalar": "0x44d",
      "l1BlobBaseFee": "0x1",
      "l1BlobBaseFeeScalar": "0xa118b",
      "l1Fee": "0x50",
      "l1GasPrice": "0x8",
      "l1GasUsed": "0x927"
    },
    {
      "status": "0x1",
      "cumulativeGasUsed": "0x6c3542",
      "logs": [
        {
          "address": "0xd8fffa68afde02c2fd13b305f7c53475d56a7896",
          "topics": [
            "0xaeff4d665346050f8d8b997791fe7df585be21bb6190d679a233995c1ead374c",
            "0x0000000000000000000000000ebe7e5f25a59ecb5d33a2b956de687e4e13e16d"
          ],
          "data": "0x000000000000000000000000000000000000000000000000000000002faf08000000000000000000000000000000000000000000000000000000000068eb402400000000000000000000000000000000000000000000000000000000000000000000000000000000000000000000000000000000000000000000000000093a80",
          "blockHash": "0x1bf3580f4a51b4df2dae3ba66c454477e1393a7c5440f0137f504603f10ba4b9",
          "blockNumber": "0x1f08e0e",
          "blockTimestamp": "0x68f47afc",
          "transactionHash": "0xcf040bdbe3679f13dd1c1805859115547616a2d69f1bf43ff1a5f8ce324a9e0d",
          "transactionIndex": "0x24",
          "logIndex": "0x2d",
          "removed": false
        }
      ],
      "logsBloom": "0x000000000080000000000000000000000000000000000000000000000000000000000000000000000000000000010000000000000000000000000000000000000800000000000000000000000000040000000000000000000000000000000040000000000000000000000000000000000000001000000000000000000000000000000000000000000000000000000000000000000000000000000000000000000000000000000000000000000000000000000000000000000000000000000000000000100000000000000000000000000000000000000000000000000000000a0000000000000000000000000000000000000000000000000000000000000000",
      "type": "0x2",
      "transactionHash": "0xcf040bdbe3679f13dd1c1805859115547616a2d69f1bf43ff1a5f8ce324a9e0d",
      "transactionIndex": "0x24",
      "blockHash": "0x1bf3580f4a51b4df2dae3ba66c454477e1393a7c5440f0137f504603f10ba4b9",
      "blockNumber": "0x1f08e0e",
      "gasUsed": "0x14c30",
      "effectiveGasPrice": "0xf428e",
      "from": "0xfae469337b520548ca8b294379ef774b6e1b25ca",
      "to": "0xd8fffa68afde02c2fd13b305f7c53475d56a7896",
      "contractAddress": null,
      "l1BaseFeeScalar": "0x44d",
      "l1BlobBaseFee": "0x1",
      "l1BlobBaseFeeScalar": "0xa118b",
      "l1Fee": "0x50",
      "l1GasPrice": "0x8",
      "l1GasUsed": "0x697"
    },
    {
      "status": "0x1",
      "cumulativeGasUsed": "0xf3f9e6",
      "logs": [
        {
          "address": "0x213e537c2d0aa1feec5c9ee55de6a501f8270248",
          "topics": [
            "0xddf252ad1be2c89b69c2b068fc378daa952ba7f163c4a11628f55a4df523b3ef",
            "0x000000000000000000000000d8fffa68afde02c2fd13b305f7c53475d56a7896",
            "0x0000000000000000000000000ebe7e5f25a59ecb5d33a2b956de687e4e13e16d"
          ],
          "data": "0x000000000000000000000000000000000000000000000000000000002faf0800",
          "blockHash": "0x9eec0938c8cd8c260a4ad01d70306ef0cdec0aa802fc7a089a1913459286e078",
          "blockNumber": "0x1f08e0e",
          "blockTimestamp": "0x68f47afc",
          "transactionHash": "0xbb67feb541ba507e25ae7c6c1733a2de461246aa79db027448a5f3d2993c5365",
          "transactionIndex": "0x54",
          "logIndex": "0x90",
          "removed": false
        },
        {
          "address": "0xd8fffa68afde02c2fd13b305f7c53475d56a7896",
          "topics": [
            "0xc7798891864187665ac6dd119286e44ec13f014527aeeb2b8eb3fd413df93179",
            "0x0000000000000000000000000ebe7e5f25a59ecb5d33a2b956de687e4e13e16d"
          ],
          "data": "0x000000000000000000000000000000000000000000000000000000002faf0800",
          "blockHash": "0x9eec0938c8cd8c260a4ad01d70306ef0cdec0aa802fc7a089a1913459286e078",
          "blockNumber": "0x1f08e0e",
          "blockTimestamp": "0x68f47afc",
          "transactionHash": "0xbb67feb541ba507e25ae7c6c1733a2de461246aa79db027448a5f3d2993c5365",
          "transactionIndex": "0x54",
          "logIndex": "0x91",
          "removed": false
        }
      ],
      "logsBloom": "0x000000000080000000000000010000000000000000000000000000000000000000000000200000000000000000010100000000000000000020000000000000000000000000000000000000080000040000000000000000000000000000000040000000004000000000000000000200000000000000000000000000100000000000000000000000000000000010000000000000000000000000000000000000002000000000000000000000000000000000100000000000000000000000000000000000020000000000000000000000000000000000000000000000000000000a0000000000000000000000000000000000000000000000000000000000000000",
      "type": "0x2",
      "transactionHash": "0xbb67feb541ba507e25ae7c6c1733a2de461246aa79db027448a5f3d2993c5365",
      "transactionIndex": "0x54",
      "blockHash": "0x9eec0938c8cd8c260a4ad01d70306ef0cdec0aa802fc7a089a1913459286e078",
      "blockNumber": "0x1f08e0e",
      "gasUsed": "0x1a93b",
      "effectiveGasPrice": "0xf428e",
      "from": "0x0ebe7e5f25a59ecb5d33a2b956de687e4e13e16d",
      "to": "0xd8fffa68afde02c2fd13b305f7c53475d56a7896",
      "contractAddress": null,
      "l1BaseFeeScalar": "0x44d",
      "l1BlobBaseFee": "0x1",
      "l1BlobBaseFeeScalar": "0xa118b",
      "l1Fee": "0x50",
      "l1GasPrice": "0x8",
      "l1GasUsed": "0x640"
    }
  ],
  "libraries": [],
  "pending": [],
  "returns": {},
  "timestamp": 1760852731752,
  "chain": 84532,
  "commit": null
}